{"contracts/Int.sol":{"Interface":{"abi":[{"inputs":[{"internalType":"address","name":"_token","type":"address"},{"internalType":"address","name":"acc","type":"address"}],"name":"balance","outputs":[{"internalType":"uint256","name":"","type":"uint256"}],"stateMutability":"view","type":"function"},{"inputs":[{"internalType":"address","name":"_token","type":"address"},{"internalType":"address","name":"acc","type":"address"},{"internalType":"string","name":"text","type":"string"}],"name":"balance_text","outputs":[{"internalType":"uint256","name":"","type":"uint256"}],"stateMutability":"view","type":"function"},{"inputs":[{"internalType":"address","name":"Pool","type":"address"},{"internalType":"address","name":"asset","type":"address"},{"internalType":"uint256","name":"amount","type":"uint256"}],"name":"borrow","outputs":[],"stateMutability":"nonpayable","type":"function"},{"inputs":[{"internalType":"address","name":"Pool","type":"address"},{"internalType":"address","name":"openAsset","type":"address"},{"internalType":"address","name":"supplyAsset","type":"address"},{"internalType":"address","name":"Router","type":"address"}],"name":"closeSum","outputs":[{"internalType":"uint256","name":"","type":"uint256"}],"stateMutability":"view","type":"function"},{"inputs":[{"internalType":"uint256","name":"amountIn","type":"uint256"},{"internalType":"address","name":"token0","type":"address"},{"internalType":"address","name":"token1","type":"address"},{"internalType":"address","name":"Router","type":"address"}],"name":"getAmountsOut","outputs":[{"internalType":"uint256","name":"","type":"uint256"}],"stateMutability":"view","type":"function"},{"inputs":[{"internalType":"address","name":"Pool","type":"address"},{"internalType":"address","name":"user","type":"address"}],"name":"getUserAccountData","outputs":[{"internalType":"uint256","name":"","type":"uint256"},{"internalType":"uint256","name":"","type":"uint256"},{"internalType":"uint256","name":"","type":"uint256"},{"internalType":"uint256","name":"","type":"uint256"},{"internalType":"uint256","name":"","type":"uint256"},{"internalType":"uint256","name":"","type":"uint256"}],"stateMutability":"view","type":"function"},{"inputs":[{"internalType":"address","name":"Pool","type":"address"},{"internalType":"address","name":"supplyAsset","type":"address"},{"internalType":"address","name":"borrowAsset","type":"address"},{"internalType":"address","name":"Router","type":"address"}],"name":"maxBorrowSum","outputs":[{"internalType":"uint256","name":"","type":"uint256"}],"stateMutability":"view","type":"function"},{"inputs":[],"name":"msg1","outputs":[{"internalType":"address","name":"","type":"address"}],"stateMutability":"nonpayable","type":"function"},{"inputs":[{"internalType":"address","name":"Pool","type":"address"},{"internalType":"address","name":"asset","type":"address"},{"internalType":"uint256","name":"amount","type":"uint256"}],"name":"repay","outputs":[],"stateMutability":"nonpayable","type":"function"},{"inputs":[{"internalType":"address","name":"Pool","type":"address"},{"internalType":"address","name":"asset","type":"address"}],"name":"repayFull","outputs":[],"stateMutability":"nonpayable","type":"function"},{"inputs":[{"internalType":"address","name":"Pool","type":"address"},{"internalType":"address","name":"asset","type":"address"},{"internalType":"uint256","name":"amount","type":"uint256"},{"internalType":"address","name":"onBehalfOf","type":"address"}],"name":"supply","outputs":[],"stateMutability":"nonpayable","type":"function"},{"inputs":[{"internalType":"uint256","name":"amountIn","type":"uint256"},{"internalType":"address","name":"token0","type":"address"},{"internalType":"address","name":"token1","type":"address"},{"internalType":"address","name":"Router","type":"address"}],"name":"swapExactTokenForTokens","outputs":[{"internalType":"uint256","name":"","type":"uint256"}],"stateMutability":"nonpayable","type":"function"},{"inputs":[{"internalType":"address","name":"_token","type":"address"},{"internalType":"address","name":"receiver","type":"address"},{"internalType":"uint256","name":"amount","type":"uint256"}],"name":"transfer","outputs":[{"internalType":"bool","name":"","type":"bool"}],"stateMutability":"nonpayable","type":"function"},{"inputs":[{"internalType":"address","name":"_token","type":"address"},{"internalType":"address","name":"sender","type":"address"},{"internalType":"address","name":"dst","type":"address"},{"internalType":"uint256","name":"wad","type":"uint256"}],"name":"transferFrom","outputs":[{"internalType":"bool","name":"","type":"bool"}],"stateMutability":"nonpayable","type":"function"},{"inputs":[{"internalType":"address","name":"Pool","type":"address"},{"internalType":"address","name":"asset","type":"address"},{"internalType":"uint256","name":"amount","type":"uint256"},{"internalType":"address","name":"to","type":"address"}],"name":"withdraw","outputs":[{"internalType":"uint256","name":"","type":"uint256"}],"stateMutability":"nonpayable","type":"function"},{"inputs":[{"internalType":"address","name":"Pool","type":"address"},{"internalType":"address","name":"asset","type":"address"}],"name":"withdrawFull","outputs":[{"internalType":"uint256","name":"","type":"uint256"}],"stateMutability":"nonpayable","type":"function"}],"evm":{"bytecode":{"linkReferences":{},"object":"608060405234801561001057600080fd5b506127a3806100206000396000f3fe608060405234801561001057600080fd5b50600436106101005760003560e01c806380135ba811610097578063d1adc12511610066578063d1adc12514610309578063f0aa858314610325578063f3571f2914610355578063f54476491461037357610100565b806380135ba81461025d5780638faf55311461028d578063b203bb99146102a9578063beabacc8146102d957610100565b806336c18e19116100d357806336c18e19146101b157806338ad12e8146101e157806342ff3ad8146102115780635224372c1461024157610100565b806303cfe7dc146101055780630e917f761461013557806315dacbea146101655780631da649cf14610195575b600080fd5b61011f600480360381019061011a9190611925565b6103a8565b60405161012c91906119a5565b60405180910390f35b61014f600480360381019061014a91906119ec565b6104ba565b60405161015c91906119a5565b60405180910390f35b61017f600480360381019061017a9190611a53565b610589565b60405161018c9190611ad5565b60405180910390f35b6101af60048036038101906101aa9190611af0565b610654565b005b6101cb60048036038101906101c69190611b43565b610762565b6040516101d891906119a5565b60405180910390f35b6101fb60048036038101906101f69190611baa565b6109eb565b60405161020891906119a5565b60405180910390f35b61022b60048036038101906102269190611d30565b610af8565b60405161023891906119a5565b60405180910390f35b61025b60048036038101906102569190611af0565b610bc2565b005b61027760048036038101906102729190611925565b610c82565b60405161028491906119a5565b60405180910390f35b6102a760048036038101906102a291906119ec565b610d85565b005b6102c360048036038101906102be9190611baa565b610ec1565b6040516102d091906119a5565b60405180910390f35b6102f360048036038101906102ee9190611af0565b610f8a565b6040516103009190611ad5565b60405180910390f35b610323600480360381019061031e9190611baa565b611052565b005b61033f600480360381019061033a9190611b43565b61119f565b60405161034c91906119a5565b60405180910390f35b61035d6113ed565b60405161036a9190611dae565b60405180910390f35b61038d60048036038101906103889190611baa565b611434565b60405161039f96959493929190611dc9565b60405180910390f35b6000808590506000806000806000808673ffffffffffffffffffffffffffffffffffffffff1663bf92857c306040518263ffffffff1660e01b81526004016103f09190611dae565b60c060405180830381865afa15801561040d573d6000803e3d6000fd5b505050506040513d601f19601f820116820180604052508101906104319190611e3f565b955095509550955095509550600061045760648761044f9190611f2a565b8d8d8d61119f565b90506000606460698361046a9190611f5b565b6104749190611f2a565b90506104a66040518060600160405280602c8152602001612742602c913960648961049f9190611f2a565b84846114d3565b809950505050505050505050949350505050565b6000808590506104ff6040518060400160405280600d81526020017f776974686472617765642025730000000000000000000000000000000000000081525085611575565b8073ffffffffffffffffffffffffffffffffffffffff166369328dec8686866040518463ffffffff1660e01b815260040161053c93929190611fb5565b6020604051808303816000875af115801561055b573d6000803e3d6000fd5b505050506040513d601f19601f8201168201806040525081019061057f9190611fec565b5050949350505050565b60006105ca6040518060400160405280600b81526020017f7472616e7366657220257300000000000000000000000000000000000000000081525083611575565b8473ffffffffffffffffffffffffffffffffffffffff166323b872dd8585856040518463ffffffff1660e01b815260040161060793929190612019565b6020604051808303816000875af1158015610626573d6000803e3d6000fd5b505050506040513d601f19601f8201168201806040525081019061064a919061207c565b9050949350505050565b8173ffffffffffffffffffffffffffffffffffffffff1663095ea7b384836040518363ffffffff1660e01b815260040161068f9291906120a9565b6020604051808303816000875af11580156106ae573d6000803e3d6000fd5b505050506040513d601f19601f820116820180604052508101906106d2919061207c565b5060008390508073ffffffffffffffffffffffffffffffffffffffff1663573ade8184846001306040518563ffffffff1660e01b81526004016107189493929190612117565b6020604051808303816000875af1158015610737573d6000803e3d6000fd5b505050506040513d601f19601f8201168201806040525081019061075b9190611fec565b5050505050565b600080600267ffffffffffffffff8111156107805761077f611c05565b5b6040519080825280602002602001820160405280156107ae5781602001602082028036833780820191505090505b50905084816000815181106107c6576107c561215c565b5b602002602001019073ffffffffffffffffffffffffffffffffffffffff16908173ffffffffffffffffffffffffffffffffffffffff168152505083816001815181106108155761081461215c565b5b602002602001019073ffffffffffffffffffffffffffffffffffffffff16908173ffffffffffffffffffffffffffffffffffffffff16815250508473ffffffffffffffffffffffffffffffffffffffff1663095ea7b384886040518363ffffffff1660e01b815260040161088a9291906120a9565b6020604051808303816000875af11580156108a9573d6000803e3d6000fd5b505050506040513d601f19601f820116820180604052508101906108cd919061207c565b5060008373ffffffffffffffffffffffffffffffffffffffff166338ed173988600085306103e8426108ff919061218b565b6040518663ffffffff1660e01b815260040161091f9594939291906122da565b6000604051808303816000875af115801561093e573d6000803e3d6000fd5b505050506040513d6000823e3d601f19601f8201168201806040525081019061096791906123fc565b90506109c36040518060400160405280600c81526020017f616d6f756e746f75742025730000000000000000000000000000000000000000815250826001815181106109b6576109b561215c565b5b6020026020010151611575565b806001815181106109d7576109d661215c565b5b602002602001015192505050949350505050565b600080839050610a506040518060400160405280600d81526020017f77697468647261776564202573000000000000000000000000000000000000008152507fffffffffffffffffffffffffffffffffffffffffffffffffffffffffffffffff611575565b8073ffffffffffffffffffffffffffffffffffffffff166369328dec847fffffffffffffffffffffffffffffffffffffffffffffffffffffffffffffffff306040518463ffffffff1660e01b8152600401610aad93929190611fb5565b6020604051808303816000875af1158015610acc573d6000803e3d6000fd5b505050506040513d601f19601f82011682018060405250810190610af09190611fec565b505092915050565b6000808473ffffffffffffffffffffffffffffffffffffffff166370a08231856040518263ffffffff1660e01b8152600401610b349190611dae565b602060405180830381865afa158015610b51573d6000803e3d6000fd5b505050506040513d601f19601f82011682018060405250810190610b759190611fec565b9050610bb76040518060400160405280600d81526020017f62616c616e6365202573202573000000000000000000000000000000000000008152508285611611565b809150509392505050565b6000839050610c076040518060400160405280601681526020017f626f72726f776564202573202073656e6465722025730000000000000000000081525083306116b0565b8073ffffffffffffffffffffffffffffffffffffffff1663a415bcad848460016000306040518663ffffffff1660e01b8152600401610c4a959493929190612484565b600060405180830381600087803b158015610c6457600080fd5b505af1158015610c78573d6000803e3d6000fd5b5050505050505050565b6000808590506000806000806000808673ffffffffffffffffffffffffffffffffffffffff1663bf92857c306040518263ffffffff1660e01b8152600401610cca9190611dae565b60c060405180830381865afa158015610ce7573d6000803e3d6000fd5b505050506040513d601f19601f82011682018060405250810190610d0b9190611e3f565b9550955095509550955095506000610d31606486610d299190611f2a565b8d8d8d61119f565b9050610d726040518060400160405280600f81526020017f6d6178426f72726f7753756d202573000000000000000000000000000000000081525082611575565b8098505050505050505050949350505050565b8273ffffffffffffffffffffffffffffffffffffffff1663095ea7b385846040518363ffffffff1660e01b8152600401610dc09291906120a9565b6020604051808303816000875af1158015610ddf573d6000803e3d6000fd5b505050506040513d601f19601f82011682018060405250810190610e03919061207c565b506000849050610e486040518060400160405280600b81526020017f737570706c79656420257300000000000000000000000000000000000000000081525084611575565b8073ffffffffffffffffffffffffffffffffffffffff1663617ba03785858560006040518563ffffffff1660e01b8152600401610e8894939291906124d7565b600060405180830381600087803b158015610ea257600080fd5b505af1158015610eb6573d6000803e3d6000fd5b505050505050505050565b6000808373ffffffffffffffffffffffffffffffffffffffff166370a08231846040518263ffffffff1660e01b8152600401610efd9190611dae565b602060405180830381865afa158015610f1a573d6000803e3d6000fd5b505050506040513d601f19601f82011682018060405250810190610f3e9190611fec565b9050610f806040518060400160405280600d81526020017f62616c616e636520257320257300000000000000000000000000000000000000815250858361174f565b8091505092915050565b6000610fcb6040518060400160405280600b81526020017f7472616e7366657220257300000000000000000000000000000000000000000081525083611575565b8373ffffffffffffffffffffffffffffffffffffffff1663a9059cbb84846040518363ffffffff1660e01b81526004016110069291906120a9565b6020604051808303816000875af1158015611025573d6000803e3d6000fd5b505050506040513d601f19601f82011682018060405250810190611049919061207c565b90509392505050565b8073ffffffffffffffffffffffffffffffffffffffff1663095ea7b3837fffffffffffffffffffffffffffffffffffffffffffffffffffffffffffffffff6040518363ffffffff1660e01b81526004016110ad9291906120a9565b6020604051808303816000875af11580156110cc573d6000803e3d6000fd5b505050506040513d601f19601f820116820180604052508101906110f0919061207c565b5060008290508073ffffffffffffffffffffffffffffffffffffffff1663573ade81837fffffffffffffffffffffffffffffffffffffffffffffffffffffffffffffffff6001306040518563ffffffff1660e01b81526004016111569493929190612117565b6020604051808303816000875af1158015611175573d6000803e3d6000fd5b505050506040513d601f19601f820116820180604052508101906111999190611fec565b50505050565b600080600267ffffffffffffffff8111156111bd576111bc611c05565b5b6040519080825280602002602001820160405280156111eb5781602001602082028036833780820191505090505b50905084816000815181106112035761120261215c565b5b602002602001019073ffffffffffffffffffffffffffffffffffffffff16908173ffffffffffffffffffffffffffffffffffffffff168152505083816001815181106112525761125161215c565b5b602002602001019073ffffffffffffffffffffffffffffffffffffffff16908173ffffffffffffffffffffffffffffffffffffffff168152505060008373ffffffffffffffffffffffffffffffffffffffff1663d06ca61f88846040518363ffffffff1660e01b81526004016112c992919061251c565b600060405180830381865afa1580156112e6573d6000803e3d6000fd5b505050506040513d6000823e3d601f19601f8201168201806040525081019061130f91906123fc565b905061136b6040518060400160405280600a81526020017f616d6f756e7430202573000000000000000000000000000000000000000000008152508260008151811061135e5761135d61215c565b5b6020026020010151611575565b6113c56040518060400160405280600a81526020017f616d6f756e743120257300000000000000000000000000000000000000000000815250826001815181106113b8576113b761215c565b5b6020026020010151611575565b806001815181106113d9576113d861215c565b5b602002602001015192505050949350505050565b600061142e6040518060400160405280600e81526020017f6d73672e73656e64657220257320000000000000000000000000000000000000815250336117ee565b33905090565b60008060008060008060008890508073ffffffffffffffffffffffffffffffffffffffff1663bf92857c896040518263ffffffff1660e01b815260040161147b9190611dae565b60c060405180830381865afa158015611498573d6000803e3d6000fd5b505050506040513d601f19601f820116820180604052508101906114bc9190611e3f565b965096509650965096509650509295509295509295565b61156f848484846040516024016114ed94939291906125d4565b6040516020818303038152906040527fa7a87853000000000000000000000000000000000000000000000000000000007bffffffffffffffffffffffffffffffffffffffffffffffffffffffff19166020820180517bffffffffffffffffffffffffffffffffffffffffffffffffffffffff838183161783525050505061188a565b50505050565b61160d828260405160240161158b929190612620565b6040516020818303038152906040527fb60e72cc000000000000000000000000000000000000000000000000000000007bffffffffffffffffffffffffffffffffffffffffffffffffffffffff19166020820180517bffffffffffffffffffffffffffffffffffffffffffffffffffffffff838183161783525050505061188a565b5050565b6116ab83838360405160240161162993929190612650565b6040516020818303038152906040527f5970e089000000000000000000000000000000000000000000000000000000007bffffffffffffffffffffffffffffffffffffffffffffffffffffffff19166020820180517bffffffffffffffffffffffffffffffffffffffffffffffffffffffff838183161783525050505061188a565b505050565b61174a8383836040516024016116c893929190612695565b6040516020818303038152906040527f1c7ec448000000000000000000000000000000000000000000000000000000007bffffffffffffffffffffffffffffffffffffffffffffffffffffffff19166020820180517bffffffffffffffffffffffffffffffffffffffffffffffffffffffff838183161783525050505061188a565b505050565b6117e9838383604051602401611767939291906126d3565b6040516020818303038152906040527f0d26b925000000000000000000000000000000000000000000000000000000007bffffffffffffffffffffffffffffffffffffffffffffffffffffffff19166020820180517bffffffffffffffffffffffffffffffffffffffffffffffffffffffff838183161783525050505061188a565b505050565b6118868282604051602401611804929190612711565b6040516020818303038152906040527f319af333000000000000000000000000000000000000000000000000000000007bffffffffffffffffffffffffffffffffffffffffffffffffffffffff19166020820180517bffffffffffffffffffffffffffffffffffffffffffffffffffffffff838183161783525050505061188a565b5050565b60008151905060006a636f6e736f6c652e6c6f679050602083016000808483855afa5050505050565b6000604051905090565b600080fd5b600080fd5b600073ffffffffffffffffffffffffffffffffffffffff82169050919050565b60006118f2826118c7565b9050919050565b611902816118e7565b811461190d57600080fd5b50565b60008135905061191f816118f9565b92915050565b6000806000806080858703121561193f5761193e6118bd565b5b600061194d87828801611910565b945050602061195e87828801611910565b935050604061196f87828801611910565b925050606061198087828801611910565b91505092959194509250565b6000819050919050565b61199f8161198c565b82525050565b60006020820190506119ba6000830184611996565b92915050565b6119c98161198c565b81146119d457600080fd5b50565b6000813590506119e6816119c0565b92915050565b60008060008060808587031215611a0657611a056118bd565b5b6000611a1487828801611910565b9450506020611a2587828801611910565b9350506040611a36878288016119d7565b9250506060611a4787828801611910565b91505092959194509250565b60008060008060808587031215611a6d57611a6c6118bd565b5b6000611a7b87828801611910565b9450506020611a8c87828801611910565b9350506040611a9d87828801611910565b9250506060611aae878288016119d7565b91505092959194509250565b60008115159050919050565b611acf81611aba565b82525050565b6000602082019050611aea6000830184611ac6565b92915050565b600080600060608486031215611b0957611b086118bd565b5b6000611b1786828701611910565b9350506020611b2886828701611910565b9250506040611b39868287016119d7565b9150509250925092565b60008060008060808587031215611b5d57611b5c6118bd565b5b6000611b6b878288016119d7565b9450506020611b7c87828801611910565b9350506040611b8d87828801611910565b9250506060611b9e87828801611910565b91505092959194509250565b60008060408385031215611bc157611bc06118bd565b5b6000611bcf85828601611910565b9250506020611be085828601611910565b9150509250929050565b600080fd5b600080fd5b6000601f19601f8301169050919050565b7f4e487b7100000000000000000000000000000000000000000000000000000000600052604160045260246000fd5b611c3d82611bf4565b810181811067ffffffffffffffff82111715611c5c57611c5b611c05565b5b80604052505050565b6000611c6f6118b3565b9050611c7b8282611c34565b919050565b600067ffffffffffffffff821115611c9b57611c9a611c05565b5b611ca482611bf4565b9050602081019050919050565b82818337600083830152505050565b6000611cd3611cce84611c80565b611c65565b905082815260208101848484011115611cef57611cee611bef565b5b611cfa848285611cb1565b509392505050565b600082601f830112611d1757611d16611bea565b5b8135611d27848260208601611cc0565b91505092915050565b600080600060608486031215611d4957611d486118bd565b5b6000611d5786828701611910565b9350506020611d6886828701611910565b925050604084013567ffffffffffffffff811115611d8957611d886118c2565b5b611d9586828701611d02565b9150509250925092565b611da8816118e7565b82525050565b6000602082019050611dc36000830184611d9f565b92915050565b600060c082019050611dde6000830189611996565b611deb6020830188611996565b611df86040830187611996565b611e056060830186611996565b611e126080830185611996565b611e1f60a0830184611996565b979650505050505050565b600081519050611e39816119c0565b92915050565b60008060008060008060c08789031215611e5c57611e5b6118bd565b5b6000611e6a89828a01611e2a565b9650506020611e7b89828a01611e2a565b9550506040611e8c89828a01611e2a565b9450506060611e9d89828a01611e2a565b9350506080611eae89828a01611e2a565b92505060a0611ebf89828a01611e2a565b9150509295509295509295565b7f4e487b7100000000000000000000000000000000000000000000000000000000600052601260045260246000fd5b7f4e487b7100000000000000000000000000000000000000000000000000000000600052601160045260246000fd5b6000611f358261198c565b9150611f408361198c565b925082611f5057611f4f611ecc565b5b828204905092915050565b6000611f668261198c565b9150611f718361198c565b9250817fffffffffffffffffffffffffffffffffffffffffffffffffffffffffffffffff0483118215151615611faa57611fa9611efb565b5b828202905092915050565b6000606082019050611fca6000830186611d9f565b611fd76020830185611996565b611fe46040830184611d9f565b949350505050565b600060208284031215612002576120016118bd565b5b600061201084828501611e2a565b91505092915050565b600060608201905061202e6000830186611d9f565b61203b6020830185611d9f565b6120486040830184611996565b949350505050565b61205981611aba565b811461206457600080fd5b50565b60008151905061207681612050565b92915050565b600060208284031215612092576120916118bd565b5b60006120a084828501612067565b91505092915050565b60006040820190506120be6000830185611d9f565b6120cb6020830184611996565b9392505050565b6000819050919050565b6000819050919050565b60006121016120fc6120f7846120d2565b6120dc565b61198c565b9050919050565b612111816120e6565b82525050565b600060808201905061212c6000830187611d9f565b6121396020830186611996565b6121466040830185612108565b6121536060830184611d9f565b95945050505050565b7f4e487b7100000000000000000000000000000000000000000000000000000000600052603260045260246000fd5b60006121968261198c565b91506121a18361198c565b9250827fffffffffffffffffffffffffffffffffffffffffffffffffffffffffffffffff038211156121d6576121d5611efb565b5b828201905092915050565b6000819050919050565b60006122066122016121fc846121e1565b6120dc565b61198c565b9050919050565b612216816121eb565b82525050565b600081519050919050565b600082825260208201905092915050565b6000819050602082019050919050565b612251816118e7565b82525050565b60006122638383612248565b60208301905092915050565b6000602082019050919050565b60006122878261221c565b6122918185612227565b935061229c83612238565b8060005b838110156122cd5781516122b48882612257565b97506122bf8361226f565b9250506001810190506122a0565b5085935050505092915050565b600060a0820190506122ef6000830188611996565b6122fc602083018761220d565b818103604083015261230e818661227c565b905061231d6060830185611d9f565b61232a6080830184611996565b9695505050505050565b600067ffffffffffffffff82111561234f5761234e611c05565b5b602082029050602081019050919050565b600080fd5b600061237861237384612334565b611c65565b9050808382526020820190506020840283018581111561239b5761239a612360565b5b835b818110156123c457806123b08882611e2a565b84526020840193505060208101905061239d565b5050509392505050565b600082601f8301126123e3576123e2611bea565b5b81516123f3848260208601612365565b91505092915050565b600060208284031215612412576124116118bd565b5b600082015167ffffffffffffffff8111156124305761242f6118c2565b5b61243c848285016123ce565b91505092915050565b600061ffff82169050919050565b600061246e612469612464846121e1565b6120dc565b612445565b9050919050565b61247e81612453565b82525050565b600060a0820190506124996000830188611d9f565b6124a66020830187611996565b6124b36040830186612108565b6124c06060830185612475565b6124cd6080830184611d9f565b9695505050505050565b60006080820190506124ec6000830187611d9f565b6124f96020830186611996565b6125066040830185611d9f565b6125136060830184612475565b95945050505050565b60006040820190506125316000830185611996565b8181036020830152612543818461227c565b90509392505050565b600081519050919050565b600082825260208201905092915050565b60005b8381101561258657808201518184015260208101905061256b565b83811115612595576000848401525b50505050565b60006125a68261254c565b6125b08185612557565b93506125c0818560208601612568565b6125c981611bf4565b840191505092915050565b600060808201905081810360008301526125ee818761259b565b90506125fd6020830186611996565b61260a6040830185611996565b6126176060830184611996565b95945050505050565b6000604082019050818103600083015261263a818561259b565b90506126496020830184611996565b9392505050565b6000606082019050818103600083015261266a818661259b565b90506126796020830185611996565b818103604083015261268b818461259b565b9050949350505050565b600060608201905081810360008301526126af818661259b565b90506126be6020830185611996565b6126cb6040830184611d9f565b949350505050565b600060608201905081810360008301526126ed818661259b565b90506126fc6020830185611d9f565b6127096040830184611996565b949350505050565b6000604082019050818103600083015261272b818561259b565b905061273a6020830184611d9f565b939250505056fe626f72726f7753756d2025732c206d696e53656c6c53756d2025732c2073756d546f436c6f7365464c202573a2646970667358221220e03742dc2f789f41eb6cf518eaba1b87abc31d4a131c2eb0578438e68c7c2d2e64736f6c634300080a0033","opcodes":"PUSH1 0x80 PUSH1 0x40 MSTORE CALLVALUE DUP1 ISZERO PUSH2 0x10 JUMPI PUSH1 0x0 DUP1 REVERT JUMPDEST POP PUSH2 0x27A3 DUP1 PUSH2 0x20 PUSH1 0x0 CODECOPY PUSH1 0x0 RETURN INVALID PUSH1 0x80 PUSH1 0x40 MSTORE CALLVALUE DUP1 ISZERO PUSH2 0x10 JUMPI PUSH1 0x0 DUP1 REVERT JUMPDEST POP PUSH1 0x4 CALLDATASIZE LT PUSH2 0x100 JUMPI PUSH1 0x0 CALLDATALOAD PUSH1 0xE0 SHR DUP1 PUSH4 0x80135BA8 GT PUSH2 0x97 JUMPI DUP1 PUSH4 0xD1ADC125 GT PUSH2 0x66 JUMPI DUP1 PUSH4 0xD1ADC125 EQ PUSH2 0x309 JUMPI DUP1 PUSH4 0xF0AA8583 EQ PUSH2 0x325 JUMPI DUP1 PUSH4 0xF3571F29 EQ PUSH2 0x355 JUMPI DUP1 PUSH4 0xF5447649 EQ PUSH2 0x373 JUMPI PUSH2 0x100 JUMP JUMPDEST DUP1 PUSH4 0x80135BA8 EQ PUSH2 0x25D JUMPI DUP1 PUSH4 0x8FAF5531 EQ PUSH2 0x28D JUMPI DUP1 PUSH4 0xB203BB99 EQ PUSH2 0x2A9 JUMPI DUP1 PUSH4 0xBEABACC8 EQ PUSH2 0x2D9 JUMPI PUSH2 0x100 JUMP JUMPDEST DUP1 PUSH4 0x36C18E19 GT PUSH2 0xD3 JUMPI DUP1 PUSH4 0x36C18E19 EQ PUSH2 0x1B1 JUMPI DUP1 PUSH4 0x38AD12E8 EQ PUSH2 0x1E1 JUMPI DUP1 PUSH4 0x42FF3AD8 EQ PUSH2 0x211 JUMPI DUP1 PUSH4 0x5224372C EQ PUSH2 0x241 JUMPI PUSH2 0x100 JUMP JUMPDEST DUP1 PUSH4 0x3CFE7DC EQ PUSH2 0x105 JUMPI DUP1 PUSH4 0xE917F76 EQ PUSH2 0x135 JUMPI DUP1 PUSH4 0x15DACBEA EQ PUSH2 0x165 JUMPI DUP1 PUSH4 0x1DA649CF EQ PUSH2 0x195 JUMPI JUMPDEST PUSH1 0x0 DUP1 REVERT JUMPDEST PUSH2 0x11F PUSH1 0x4 DUP1 CALLDATASIZE SUB DUP2 ADD SWAP1 PUSH2 0x11A SWAP2 SWAP1 PUSH2 0x1925 JUMP JUMPDEST PUSH2 0x3A8 JUMP JUMPDEST PUSH1 0x40 MLOAD PUSH2 0x12C SWAP2 SWAP1 PUSH2 0x19A5 JUMP JUMPDEST PUSH1 0x40 MLOAD DUP1 SWAP2 SUB SWAP1 RETURN JUMPDEST PUSH2 0x14F PUSH1 0x4 DUP1 CALLDATASIZE SUB DUP2 ADD SWAP1 PUSH2 0x14A SWAP2 SWAP1 PUSH2 0x19EC JUMP JUMPDEST PUSH2 0x4BA JUMP JUMPDEST PUSH1 0x40 MLOAD PUSH2 0x15C SWAP2 SWAP1 PUSH2 0x19A5 JUMP JUMPDEST PUSH1 0x40 MLOAD DUP1 SWAP2 SUB SWAP1 RETURN JUMPDEST PUSH2 0x17F PUSH1 0x4 DUP1 CALLDATASIZE SUB DUP2 ADD SWAP1 PUSH2 0x17A SWAP2 SWAP1 PUSH2 0x1A53 JUMP JUMPDEST PUSH2 0x589 JUMP JUMPDEST PUSH1 0x40 MLOAD PUSH2 0x18C SWAP2 SWAP1 PUSH2 0x1AD5 JUMP JUMPDEST PUSH1 0x40 MLOAD DUP1 SWAP2 SUB SWAP1 RETURN JUMPDEST PUSH2 0x1AF PUSH1 0x4 DUP1 CALLDATASIZE SUB DUP2 ADD SWAP1 PUSH2 0x1AA SWAP2 SWAP1 PUSH2 0x1AF0 JUMP JUMPDEST PUSH2 0x654 JUMP JUMPDEST STOP JUMPDEST PUSH2 0x1CB PUSH1 0x4 DUP1 CALLDATASIZE SUB DUP2 ADD SWAP1 PUSH2 0x1C6 SWAP2 SWAP1 PUSH2 0x1B43 JUMP JUMPDEST PUSH2 0x762 JUMP JUMPDEST PUSH1 0x40 MLOAD PUSH2 0x1D8 SWAP2 SWAP1 PUSH2 0x19A5 JUMP JUMPDEST PUSH1 0x40 MLOAD DUP1 SWAP2 SUB SWAP1 RETURN JUMPDEST PUSH2 0x1FB PUSH1 0x4 DUP1 CALLDATASIZE SUB DUP2 ADD SWAP1 PUSH2 0x1F6 SWAP2 SWAP1 PUSH2 0x1BAA JUMP JUMPDEST PUSH2 0x9EB JUMP JUMPDEST PUSH1 0x40 MLOAD PUSH2 0x208 SWAP2 SWAP1 PUSH2 0x19A5 JUMP JUMPDEST PUSH1 0x40 MLOAD DUP1 SWAP2 SUB SWAP1 RETURN JUMPDEST PUSH2 0x22B PUSH1 0x4 DUP1 CALLDATASIZE SUB DUP2 ADD SWAP1 PUSH2 0x226 SWAP2 SWAP1 PUSH2 0x1D30 JUMP JUMPDEST PUSH2 0xAF8 JUMP JUMPDEST PUSH1 0x40 MLOAD PUSH2 0x238 SWAP2 SWAP1 PUSH2 0x19A5 JUMP JUMPDEST PUSH1 0x40 MLOAD DUP1 SWAP2 SUB SWAP1 RETURN JUMPDEST PUSH2 0x25B PUSH1 0x4 DUP1 CALLDATASIZE SUB DUP2 ADD SWAP1 PUSH2 0x256 SWAP2 SWAP1 PUSH2 0x1AF0 JUMP JUMPDEST PUSH2 0xBC2 JUMP JUMPDEST STOP JUMPDEST PUSH2 0x277 PUSH1 0x4 DUP1 CALLDATASIZE SUB DUP2 ADD SWAP1 PUSH2 0x272 SWAP2 SWAP1 PUSH2 0x1925 JUMP JUMPDEST PUSH2 0xC82 JUMP JUMPDEST PUSH1 0x40 MLOAD PUSH2 0x284 SWAP2 SWAP1 PUSH2 0x19A5 JUMP JUMPDEST PUSH1 0x40 MLOAD DUP1 SWAP2 SUB SWAP1 RETURN JUMPDEST PUSH2 0x2A7 PUSH1 0x4 DUP1 CALLDATASIZE SUB DUP2 ADD SWAP1 PUSH2 0x2A2 SWAP2 SWAP1 PUSH2 0x19EC JUMP JUMPDEST PUSH2 0xD85 JUMP JUMPDEST STOP JUMPDEST PUSH2 0x2C3 PUSH1 0x4 DUP1 CALLDATASIZE SUB DUP2 ADD SWAP1 PUSH2 0x2BE SWAP2 SWAP1 PUSH2 0x1BAA JUMP JUMPDEST PUSH2 0xEC1 JUMP JUMPDEST PUSH1 0x40 MLOAD PUSH2 0x2D0 SWAP2 SWAP1 PUSH2 0x19A5 JUMP JUMPDEST PUSH1 0x40 MLOAD DUP1 SWAP2 SUB SWAP1 RETURN JUMPDEST PUSH2 0x2F3 PUSH1 0x4 DUP1 CALLDATASIZE SUB DUP2 ADD SWAP1 PUSH2 0x2EE SWAP2 SWAP1 PUSH2 0x1AF0 JUMP JUMPDEST PUSH2 0xF8A JUMP JUMPDEST PUSH1 0x40 MLOAD PUSH2 0x300 SWAP2 SWAP1 PUSH2 0x1AD5 JUMP JUMPDEST PUSH1 0x40 MLOAD DUP1 SWAP2 SUB SWAP1 RETURN JUMPDEST PUSH2 0x323 PUSH1 0x4 DUP1 CALLDATASIZE SUB DUP2 ADD SWAP1 PUSH2 0x31E SWAP2 SWAP1 PUSH2 0x1BAA JUMP JUMPDEST PUSH2 0x1052 JUMP JUMPDEST STOP JUMPDEST PUSH2 0x33F PUSH1 0x4 DUP1 CALLDATASIZE SUB DUP2 ADD SWAP1 PUSH2 0x33A SWAP2 SWAP1 PUSH2 0x1B43 JUMP JUMPDEST PUSH2 0x119F JUMP JUMPDEST PUSH1 0x40 MLOAD PUSH2 0x34C SWAP2 SWAP1 PUSH2 0x19A5 JUMP JUMPDEST PUSH1 0x40 MLOAD DUP1 SWAP2 SUB SWAP1 RETURN JUMPDEST PUSH2 0x35D PUSH2 0x13ED JUMP JUMPDEST PUSH1 0x40 MLOAD PUSH2 0x36A SWAP2 SWAP1 PUSH2 0x1DAE JUMP JUMPDEST PUSH1 0x40 MLOAD DUP1 SWAP2 SUB SWAP1 RETURN JUMPDEST PUSH2 0x38D PUSH1 0x4 DUP1 CALLDATASIZE SUB DUP2 ADD SWAP1 PUSH2 0x388 SWAP2 SWAP1 PUSH2 0x1BAA JUMP JUMPDEST PUSH2 0x1434 JUMP JUMPDEST PUSH1 0x40 MLOAD PUSH2 0x39F SWAP7 SWAP6 SWAP5 SWAP4 SWAP3 SWAP2 SWAP1 PUSH2 0x1DC9 JUMP JUMPDEST PUSH1 0x40 MLOAD DUP1 SWAP2 SUB SWAP1 RETURN JUMPDEST PUSH1 0x0 DUP1 DUP6 SWAP1 POP PUSH1 0x0 DUP1 PUSH1 0x0 DUP1 PUSH1 0x0 DUP1 DUP7 PUSH20 0xFFFFFFFFFFFFFFFFFFFFFFFFFFFFFFFFFFFFFFFF AND PUSH4 0xBF92857C ADDRESS PUSH1 0x40 MLOAD DUP3 PUSH4 0xFFFFFFFF AND PUSH1 0xE0 SHL DUP2 MSTORE PUSH1 0x4 ADD PUSH2 0x3F0 SWAP2 SWAP1 PUSH2 0x1DAE JUMP JUMPDEST PUSH1 0xC0 PUSH1 0x40 MLOAD DUP1 DUP4 SUB DUP2 DUP7 GAS STATICCALL ISZERO DUP1 ISZERO PUSH2 0x40D JUMPI RETURNDATASIZE PUSH1 0x0 DUP1 RETURNDATACOPY RETURNDATASIZE PUSH1 0x0 REVERT JUMPDEST POP POP POP POP PUSH1 0x40 MLOAD RETURNDATASIZE PUSH1 0x1F NOT PUSH1 0x1F DUP3 ADD AND DUP3 ADD DUP1 PUSH1 0x40 MSTORE POP DUP2 ADD SWAP1 PUSH2 0x431 SWAP2 SWAP1 PUSH2 0x1E3F JUMP JUMPDEST SWAP6 POP SWAP6 POP SWAP6 POP SWAP6 POP SWAP6 POP SWAP6 POP PUSH1 0x0 PUSH2 0x457 PUSH1 0x64 DUP8 PUSH2 0x44F SWAP2 SWAP1 PUSH2 0x1F2A JUMP JUMPDEST DUP14 DUP14 DUP14 PUSH2 0x119F JUMP JUMPDEST SWAP1 POP PUSH1 0x0 PUSH1 0x64 PUSH1 0x69 DUP4 PUSH2 0x46A SWAP2 SWAP1 PUSH2 0x1F5B JUMP JUMPDEST PUSH2 0x474 SWAP2 SWAP1 PUSH2 0x1F2A JUMP JUMPDEST SWAP1 POP PUSH2 0x4A6 PUSH1 0x40 MLOAD DUP1 PUSH1 0x60 ADD PUSH1 0x40 MSTORE DUP1 PUSH1 0x2C DUP2 MSTORE PUSH1 0x20 ADD PUSH2 0x2742 PUSH1 0x2C SWAP2 CODECOPY PUSH1 0x64 DUP10 PUSH2 0x49F SWAP2 SWAP1 PUSH2 0x1F2A JUMP JUMPDEST DUP5 DUP5 PUSH2 0x14D3 JUMP JUMPDEST DUP1 SWAP10 POP POP POP POP POP POP POP POP POP POP SWAP5 SWAP4 POP POP POP POP JUMP JUMPDEST PUSH1 0x0 DUP1 DUP6 SWAP1 POP PUSH2 0x4FF PUSH1 0x40 MLOAD DUP1 PUSH1 0x40 ADD PUSH1 0x40 MSTORE DUP1 PUSH1 0xD DUP2 MSTORE PUSH1 0x20 ADD PUSH32 0x7769746864726177656420257300000000000000000000000000000000000000 DUP2 MSTORE POP DUP6 PUSH2 0x1575 JUMP JUMPDEST DUP1 PUSH20 0xFFFFFFFFFFFFFFFFFFFFFFFFFFFFFFFFFFFFFFFF AND PUSH4 0x69328DEC DUP7 DUP7 DUP7 PUSH1 0x40 MLOAD DUP5 PUSH4 0xFFFFFFFF AND PUSH1 0xE0 SHL DUP2 MSTORE PUSH1 0x4 ADD PUSH2 0x53C SWAP4 SWAP3 SWAP2 SWAP1 PUSH2 0x1FB5 JUMP JUMPDEST PUSH1 0x20 PUSH1 0x40 MLOAD DUP1 DUP4 SUB DUP2 PUSH1 0x0 DUP8 GAS CALL ISZERO DUP1 ISZERO PUSH2 0x55B JUMPI RETURNDATASIZE PUSH1 0x0 DUP1 RETURNDATACOPY RETURNDATASIZE PUSH1 0x0 REVERT JUMPDEST POP POP POP POP PUSH1 0x40 MLOAD RETURNDATASIZE PUSH1 0x1F NOT PUSH1 0x1F DUP3 ADD AND DUP3 ADD DUP1 PUSH1 0x40 MSTORE POP DUP2 ADD SWAP1 PUSH2 0x57F SWAP2 SWAP1 PUSH2 0x1FEC JUMP JUMPDEST POP POP SWAP5 SWAP4 POP POP POP POP JUMP JUMPDEST PUSH1 0x0 PUSH2 0x5CA PUSH1 0x40 MLOAD DUP1 PUSH1 0x40 ADD PUSH1 0x40 MSTORE DUP1 PUSH1 0xB DUP2 MSTORE PUSH1 0x20 ADD PUSH32 0x7472616E73666572202573000000000000000000000000000000000000000000 DUP2 MSTORE POP DUP4 PUSH2 0x1575 JUMP JUMPDEST DUP5 PUSH20 0xFFFFFFFFFFFFFFFFFFFFFFFFFFFFFFFFFFFFFFFF AND PUSH4 0x23B872DD DUP6 DUP6 DUP6 PUSH1 0x40 MLOAD DUP5 PUSH4 0xFFFFFFFF AND PUSH1 0xE0 SHL DUP2 MSTORE PUSH1 0x4 ADD PUSH2 0x607 SWAP4 SWAP3 SWAP2 SWAP1 PUSH2 0x2019 JUMP JUMPDEST PUSH1 0x20 PUSH1 0x40 MLOAD DUP1 DUP4 SUB DUP2 PUSH1 0x0 DUP8 GAS CALL ISZERO DUP1 ISZERO PUSH2 0x626 JUMPI RETURNDATASIZE PUSH1 0x0 DUP1 RETURNDATACOPY RETURNDATASIZE PUSH1 0x0 REVERT JUMPDEST POP POP POP POP PUSH1 0x40 MLOAD RETURNDATASIZE PUSH1 0x1F NOT PUSH1 0x1F DUP3 ADD AND DUP3 ADD DUP1 PUSH1 0x40 MSTORE POP DUP2 ADD SWAP1 PUSH2 0x64A SWAP2 SWAP1 PUSH2 0x207C JUMP JUMPDEST SWAP1 POP SWAP5 SWAP4 POP POP POP POP JUMP JUMPDEST DUP2 PUSH20 0xFFFFFFFFFFFFFFFFFFFFFFFFFFFFFFFFFFFFFFFF AND PUSH4 0x95EA7B3 DUP5 DUP4 PUSH1 0x40 MLOAD DUP4 PUSH4 0xFFFFFFFF AND PUSH1 0xE0 SHL DUP2 MSTORE PUSH1 0x4 ADD PUSH2 0x68F SWAP3 SWAP2 SWAP1 PUSH2 0x20A9 JUMP JUMPDEST PUSH1 0x20 PUSH1 0x40 MLOAD DUP1 DUP4 SUB DUP2 PUSH1 0x0 DUP8 GAS CALL ISZERO DUP1 ISZERO PUSH2 0x6AE JUMPI RETURNDATASIZE PUSH1 0x0 DUP1 RETURNDATACOPY RETURNDATASIZE PUSH1 0x0 REVERT JUMPDEST POP POP POP POP PUSH1 0x40 MLOAD RETURNDATASIZE PUSH1 0x1F NOT PUSH1 0x1F DUP3 ADD AND DUP3 ADD DUP1 PUSH1 0x40 MSTORE POP DUP2 ADD SWAP1 PUSH2 0x6D2 SWAP2 SWAP1 PUSH2 0x207C JUMP JUMPDEST POP PUSH1 0x0 DUP4 SWAP1 POP DUP1 PUSH20 0xFFFFFFFFFFFFFFFFFFFFFFFFFFFFFFFFFFFFFFFF AND PUSH4 0x573ADE81 DUP5 DUP5 PUSH1 0x1 ADDRESS PUSH1 0x40 MLOAD DUP6 PUSH4 0xFFFFFFFF AND PUSH1 0xE0 SHL DUP2 MSTORE PUSH1 0x4 ADD PUSH2 0x718 SWAP5 SWAP4 SWAP3 SWAP2 SWAP1 PUSH2 0x2117 JUMP JUMPDEST PUSH1 0x20 PUSH1 0x40 MLOAD DUP1 DUP4 SUB DUP2 PUSH1 0x0 DUP8 GAS CALL ISZERO DUP1 ISZERO PUSH2 0x737 JUMPI RETURNDATASIZE PUSH1 0x0 DUP1 RETURNDATACOPY RETURNDATASIZE PUSH1 0x0 REVERT JUMPDEST POP POP POP POP PUSH1 0x40 MLOAD RETURNDATASIZE PUSH1 0x1F NOT PUSH1 0x1F DUP3 ADD AND DUP3 ADD DUP1 PUSH1 0x40 MSTORE POP DUP2 ADD SWAP1 PUSH2 0x75B SWAP2 SWAP1 PUSH2 0x1FEC JUMP JUMPDEST POP POP POP POP POP JUMP JUMPDEST PUSH1 0x0 DUP1 PUSH1 0x2 PUSH8 0xFFFFFFFFFFFFFFFF DUP2 GT ISZERO PUSH2 0x780 JUMPI PUSH2 0x77F PUSH2 0x1C05 JUMP JUMPDEST JUMPDEST PUSH1 0x40 MLOAD SWAP1 DUP1 DUP3 MSTORE DUP1 PUSH1 0x20 MUL PUSH1 0x20 ADD DUP3 ADD PUSH1 0x40 MSTORE DUP1 ISZERO PUSH2 0x7AE JUMPI DUP2 PUSH1 0x20 ADD PUSH1 0x20 DUP3 MUL DUP1 CALLDATASIZE DUP4 CALLDATACOPY DUP1 DUP3 ADD SWAP2 POP POP SWAP1 POP JUMPDEST POP SWAP1 POP DUP5 DUP2 PUSH1 0x0 DUP2 MLOAD DUP2 LT PUSH2 0x7C6 JUMPI PUSH2 0x7C5 PUSH2 0x215C JUMP JUMPDEST JUMPDEST PUSH1 0x20 MUL PUSH1 0x20 ADD ADD SWAP1 PUSH20 0xFFFFFFFFFFFFFFFFFFFFFFFFFFFFFFFFFFFFFFFF AND SWAP1 DUP2 PUSH20 0xFFFFFFFFFFFFFFFFFFFFFFFFFFFFFFFFFFFFFFFF AND DUP2 MSTORE POP POP DUP4 DUP2 PUSH1 0x1 DUP2 MLOAD DUP2 LT PUSH2 0x815 JUMPI PUSH2 0x814 PUSH2 0x215C JUMP JUMPDEST JUMPDEST PUSH1 0x20 MUL PUSH1 0x20 ADD ADD SWAP1 PUSH20 0xFFFFFFFFFFFFFFFFFFFFFFFFFFFFFFFFFFFFFFFF AND SWAP1 DUP2 PUSH20 0xFFFFFFFFFFFFFFFFFFFFFFFFFFFFFFFFFFFFFFFF AND DUP2 MSTORE POP POP DUP5 PUSH20 0xFFFFFFFFFFFFFFFFFFFFFFFFFFFFFFFFFFFFFFFF AND PUSH4 0x95EA7B3 DUP5 DUP9 PUSH1 0x40 MLOAD DUP4 PUSH4 0xFFFFFFFF AND PUSH1 0xE0 SHL DUP2 MSTORE PUSH1 0x4 ADD PUSH2 0x88A SWAP3 SWAP2 SWAP1 PUSH2 0x20A9 JUMP JUMPDEST PUSH1 0x20 PUSH1 0x40 MLOAD DUP1 DUP4 SUB DUP2 PUSH1 0x0 DUP8 GAS CALL ISZERO DUP1 ISZERO PUSH2 0x8A9 JUMPI RETURNDATASIZE PUSH1 0x0 DUP1 RETURNDATACOPY RETURNDATASIZE PUSH1 0x0 REVERT JUMPDEST POP POP POP POP PUSH1 0x40 MLOAD RETURNDATASIZE PUSH1 0x1F NOT PUSH1 0x1F DUP3 ADD AND DUP3 ADD DUP1 PUSH1 0x40 MSTORE POP DUP2 ADD SWAP1 PUSH2 0x8CD SWAP2 SWAP1 PUSH2 0x207C JUMP JUMPDEST POP PUSH1 0x0 DUP4 PUSH20 0xFFFFFFFFFFFFFFFFFFFFFFFFFFFFFFFFFFFFFFFF AND PUSH4 0x38ED1739 DUP9 PUSH1 0x0 DUP6 ADDRESS PUSH2 0x3E8 TIMESTAMP PUSH2 0x8FF SWAP2 SWAP1 PUSH2 0x218B JUMP JUMPDEST PUSH1 0x40 MLOAD DUP7 PUSH4 0xFFFFFFFF AND PUSH1 0xE0 SHL DUP2 MSTORE PUSH1 0x4 ADD PUSH2 0x91F SWAP6 SWAP5 SWAP4 SWAP3 SWAP2 SWAP1 PUSH2 0x22DA JUMP JUMPDEST PUSH1 0x0 PUSH1 0x40 MLOAD DUP1 DUP4 SUB DUP2 PUSH1 0x0 DUP8 GAS CALL ISZERO DUP1 ISZERO PUSH2 0x93E JUMPI RETURNDATASIZE PUSH1 0x0 DUP1 RETURNDATACOPY RETURNDATASIZE PUSH1 0x0 REVERT JUMPDEST POP POP POP POP PUSH1 0x40 MLOAD RETURNDATASIZE PUSH1 0x0 DUP3 RETURNDATACOPY RETURNDATASIZE PUSH1 0x1F NOT PUSH1 0x1F DUP3 ADD AND DUP3 ADD DUP1 PUSH1 0x40 MSTORE POP DUP2 ADD SWAP1 PUSH2 0x967 SWAP2 SWAP1 PUSH2 0x23FC JUMP JUMPDEST SWAP1 POP PUSH2 0x9C3 PUSH1 0x40 MLOAD DUP1 PUSH1 0x40 ADD PUSH1 0x40 MSTORE DUP1 PUSH1 0xC DUP2 MSTORE PUSH1 0x20 ADD PUSH32 0x616D6F756E746F75742025730000000000000000000000000000000000000000 DUP2 MSTORE POP DUP3 PUSH1 0x1 DUP2 MLOAD DUP2 LT PUSH2 0x9B6 JUMPI PUSH2 0x9B5 PUSH2 0x215C JUMP JUMPDEST JUMPDEST PUSH1 0x20 MUL PUSH1 0x20 ADD ADD MLOAD PUSH2 0x1575 JUMP JUMPDEST DUP1 PUSH1 0x1 DUP2 MLOAD DUP2 LT PUSH2 0x9D7 JUMPI PUSH2 0x9D6 PUSH2 0x215C JUMP JUMPDEST JUMPDEST PUSH1 0x20 MUL PUSH1 0x20 ADD ADD MLOAD SWAP3 POP POP POP SWAP5 SWAP4 POP POP POP POP JUMP JUMPDEST PUSH1 0x0 DUP1 DUP4 SWAP1 POP PUSH2 0xA50 PUSH1 0x40 MLOAD DUP1 PUSH1 0x40 ADD PUSH1 0x40 MSTORE DUP1 PUSH1 0xD DUP2 MSTORE PUSH1 0x20 ADD PUSH32 0x7769746864726177656420257300000000000000000000000000000000000000 DUP2 MSTORE POP PUSH32 0xFFFFFFFFFFFFFFFFFFFFFFFFFFFFFFFFFFFFFFFFFFFFFFFFFFFFFFFFFFFFFFFF PUSH2 0x1575 JUMP JUMPDEST DUP1 PUSH20 0xFFFFFFFFFFFFFFFFFFFFFFFFFFFFFFFFFFFFFFFF AND PUSH4 0x69328DEC DUP5 PUSH32 0xFFFFFFFFFFFFFFFFFFFFFFFFFFFFFFFFFFFFFFFFFFFFFFFFFFFFFFFFFFFFFFFF ADDRESS PUSH1 0x40 MLOAD DUP5 PUSH4 0xFFFFFFFF AND PUSH1 0xE0 SHL DUP2 MSTORE PUSH1 0x4 ADD PUSH2 0xAAD SWAP4 SWAP3 SWAP2 SWAP1 PUSH2 0x1FB5 JUMP JUMPDEST PUSH1 0x20 PUSH1 0x40 MLOAD DUP1 DUP4 SUB DUP2 PUSH1 0x0 DUP8 GAS CALL ISZERO DUP1 ISZERO PUSH2 0xACC JUMPI RETURNDATASIZE PUSH1 0x0 DUP1 RETURNDATACOPY RETURNDATASIZE PUSH1 0x0 REVERT JUMPDEST POP POP POP POP PUSH1 0x40 MLOAD RETURNDATASIZE PUSH1 0x1F NOT PUSH1 0x1F DUP3 ADD AND DUP3 ADD DUP1 PUSH1 0x40 MSTORE POP DUP2 ADD SWAP1 PUSH2 0xAF0 SWAP2 SWAP1 PUSH2 0x1FEC JUMP JUMPDEST POP POP SWAP3 SWAP2 POP POP JUMP JUMPDEST PUSH1 0x0 DUP1 DUP5 PUSH20 0xFFFFFFFFFFFFFFFFFFFFFFFFFFFFFFFFFFFFFFFF AND PUSH4 0x70A08231 DUP6 PUSH1 0x40 MLOAD DUP3 PUSH4 0xFFFFFFFF AND PUSH1 0xE0 SHL DUP2 MSTORE PUSH1 0x4 ADD PUSH2 0xB34 SWAP2 SWAP1 PUSH2 0x1DAE JUMP JUMPDEST PUSH1 0x20 PUSH1 0x40 MLOAD DUP1 DUP4 SUB DUP2 DUP7 GAS STATICCALL ISZERO DUP1 ISZERO PUSH2 0xB51 JUMPI RETURNDATASIZE PUSH1 0x0 DUP1 RETURNDATACOPY RETURNDATASIZE PUSH1 0x0 REVERT JUMPDEST POP POP POP POP PUSH1 0x40 MLOAD RETURNDATASIZE PUSH1 0x1F NOT PUSH1 0x1F DUP3 ADD AND DUP3 ADD DUP1 PUSH1 0x40 MSTORE POP DUP2 ADD SWAP1 PUSH2 0xB75 SWAP2 SWAP1 PUSH2 0x1FEC JUMP JUMPDEST SWAP1 POP PUSH2 0xBB7 PUSH1 0x40 MLOAD DUP1 PUSH1 0x40 ADD PUSH1 0x40 MSTORE DUP1 PUSH1 0xD DUP2 MSTORE PUSH1 0x20 ADD PUSH32 0x62616C616E636520257320257300000000000000000000000000000000000000 DUP2 MSTORE POP DUP3 DUP6 PUSH2 0x1611 JUMP JUMPDEST DUP1 SWAP2 POP POP SWAP4 SWAP3 POP POP POP JUMP JUMPDEST PUSH1 0x0 DUP4 SWAP1 POP PUSH2 0xC07 PUSH1 0x40 MLOAD DUP1 PUSH1 0x40 ADD PUSH1 0x40 MSTORE DUP1 PUSH1 0x16 DUP2 MSTORE PUSH1 0x20 ADD PUSH32 0x626F72726F776564202573202073656E64657220257300000000000000000000 DUP2 MSTORE POP DUP4 ADDRESS PUSH2 0x16B0 JUMP JUMPDEST DUP1 PUSH20 0xFFFFFFFFFFFFFFFFFFFFFFFFFFFFFFFFFFFFFFFF AND PUSH4 0xA415BCAD DUP5 DUP5 PUSH1 0x1 PUSH1 0x0 ADDRESS PUSH1 0x40 MLOAD DUP7 PUSH4 0xFFFFFFFF AND PUSH1 0xE0 SHL DUP2 MSTORE PUSH1 0x4 ADD PUSH2 0xC4A SWAP6 SWAP5 SWAP4 SWAP3 SWAP2 SWAP1 PUSH2 0x2484 JUMP JUMPDEST PUSH1 0x0 PUSH1 0x40 MLOAD DUP1 DUP4 SUB DUP2 PUSH1 0x0 DUP8 DUP1 EXTCODESIZE ISZERO DUP1 ISZERO PUSH2 0xC64 JUMPI PUSH1 0x0 DUP1 REVERT JUMPDEST POP GAS CALL ISZERO DUP1 ISZERO PUSH2 0xC78 JUMPI RETURNDATASIZE PUSH1 0x0 DUP1 RETURNDATACOPY RETURNDATASIZE PUSH1 0x0 REVERT JUMPDEST POP POP POP POP POP POP POP POP JUMP JUMPDEST PUSH1 0x0 DUP1 DUP6 SWAP1 POP PUSH1 0x0 DUP1 PUSH1 0x0 DUP1 PUSH1 0x0 DUP1 DUP7 PUSH20 0xFFFFFFFFFFFFFFFFFFFFFFFFFFFFFFFFFFFFFFFF AND PUSH4 0xBF92857C ADDRESS PUSH1 0x40 MLOAD DUP3 PUSH4 0xFFFFFFFF AND PUSH1 0xE0 SHL DUP2 MSTORE PUSH1 0x4 ADD PUSH2 0xCCA SWAP2 SWAP1 PUSH2 0x1DAE JUMP JUMPDEST PUSH1 0xC0 PUSH1 0x40 MLOAD DUP1 DUP4 SUB DUP2 DUP7 GAS STATICCALL ISZERO DUP1 ISZERO PUSH2 0xCE7 JUMPI RETURNDATASIZE PUSH1 0x0 DUP1 RETURNDATACOPY RETURNDATASIZE PUSH1 0x0 REVERT JUMPDEST POP POP POP POP PUSH1 0x40 MLOAD RETURNDATASIZE PUSH1 0x1F NOT PUSH1 0x1F DUP3 ADD AND DUP3 ADD DUP1 PUSH1 0x40 MSTORE POP DUP2 ADD SWAP1 PUSH2 0xD0B SWAP2 SWAP1 PUSH2 0x1E3F JUMP JUMPDEST SWAP6 POP SWAP6 POP SWAP6 POP SWAP6 POP SWAP6 POP SWAP6 POP PUSH1 0x0 PUSH2 0xD31 PUSH1 0x64 DUP7 PUSH2 0xD29 SWAP2 SWAP1 PUSH2 0x1F2A JUMP JUMPDEST DUP14 DUP14 DUP14 PUSH2 0x119F JUMP JUMPDEST SWAP1 POP PUSH2 0xD72 PUSH1 0x40 MLOAD DUP1 PUSH1 0x40 ADD PUSH1 0x40 MSTORE DUP1 PUSH1 0xF DUP2 MSTORE PUSH1 0x20 ADD PUSH32 0x6D6178426F72726F7753756D2025730000000000000000000000000000000000 DUP2 MSTORE POP DUP3 PUSH2 0x1575 JUMP JUMPDEST DUP1 SWAP9 POP POP POP POP POP POP POP POP POP SWAP5 SWAP4 POP POP POP POP JUMP JUMPDEST DUP3 PUSH20 0xFFFFFFFFFFFFFFFFFFFFFFFFFFFFFFFFFFFFFFFF AND PUSH4 0x95EA7B3 DUP6 DUP5 PUSH1 0x40 MLOAD DUP4 PUSH4 0xFFFFFFFF AND PUSH1 0xE0 SHL DUP2 MSTORE PUSH1 0x4 ADD PUSH2 0xDC0 SWAP3 SWAP2 SWAP1 PUSH2 0x20A9 JUMP JUMPDEST PUSH1 0x20 PUSH1 0x40 MLOAD DUP1 DUP4 SUB DUP2 PUSH1 0x0 DUP8 GAS CALL ISZERO DUP1 ISZERO PUSH2 0xDDF JUMPI RETURNDATASIZE PUSH1 0x0 DUP1 RETURNDATACOPY RETURNDATASIZE PUSH1 0x0 REVERT JUMPDEST POP POP POP POP PUSH1 0x40 MLOAD RETURNDATASIZE PUSH1 0x1F NOT PUSH1 0x1F DUP3 ADD AND DUP3 ADD DUP1 PUSH1 0x40 MSTORE POP DUP2 ADD SWAP1 PUSH2 0xE03 SWAP2 SWAP1 PUSH2 0x207C JUMP JUMPDEST POP PUSH1 0x0 DUP5 SWAP1 POP PUSH2 0xE48 PUSH1 0x40 MLOAD DUP1 PUSH1 0x40 ADD PUSH1 0x40 MSTORE DUP1 PUSH1 0xB DUP2 MSTORE PUSH1 0x20 ADD PUSH32 0x737570706C796564202573000000000000000000000000000000000000000000 DUP2 MSTORE POP DUP5 PUSH2 0x1575 JUMP JUMPDEST DUP1 PUSH20 0xFFFFFFFFFFFFFFFFFFFFFFFFFFFFFFFFFFFFFFFF AND PUSH4 0x617BA037 DUP6 DUP6 DUP6 PUSH1 0x0 PUSH1 0x40 MLOAD DUP6 PUSH4 0xFFFFFFFF AND PUSH1 0xE0 SHL DUP2 MSTORE PUSH1 0x4 ADD PUSH2 0xE88 SWAP5 SWAP4 SWAP3 SWAP2 SWAP1 PUSH2 0x24D7 JUMP JUMPDEST PUSH1 0x0 PUSH1 0x40 MLOAD DUP1 DUP4 SUB DUP2 PUSH1 0x0 DUP8 DUP1 EXTCODESIZE ISZERO DUP1 ISZERO PUSH2 0xEA2 JUMPI PUSH1 0x0 DUP1 REVERT JUMPDEST POP GAS CALL ISZERO DUP1 ISZERO PUSH2 0xEB6 JUMPI RETURNDATASIZE PUSH1 0x0 DUP1 RETURNDATACOPY RETURNDATASIZE PUSH1 0x0 REVERT JUMPDEST POP POP POP POP POP POP POP POP POP JUMP JUMPDEST PUSH1 0x0 DUP1 DUP4 PUSH20 0xFFFFFFFFFFFFFFFFFFFFFFFFFFFFFFFFFFFFFFFF AND PUSH4 0x70A08231 DUP5 PUSH1 0x40 MLOAD DUP3 PUSH4 0xFFFFFFFF AND PUSH1 0xE0 SHL DUP2 MSTORE PUSH1 0x4 ADD PUSH2 0xEFD SWAP2 SWAP1 PUSH2 0x1DAE JUMP JUMPDEST PUSH1 0x20 PUSH1 0x40 MLOAD DUP1 DUP4 SUB DUP2 DUP7 GAS STATICCALL ISZERO DUP1 ISZERO PUSH2 0xF1A JUMPI RETURNDATASIZE PUSH1 0x0 DUP1 RETURNDATACOPY RETURNDATASIZE PUSH1 0x0 REVERT JUMPDEST POP POP POP POP PUSH1 0x40 MLOAD RETURNDATASIZE PUSH1 0x1F NOT PUSH1 0x1F DUP3 ADD AND DUP3 ADD DUP1 PUSH1 0x40 MSTORE POP DUP2 ADD SWAP1 PUSH2 0xF3E SWAP2 SWAP1 PUSH2 0x1FEC JUMP JUMPDEST SWAP1 POP PUSH2 0xF80 PUSH1 0x40 MLOAD DUP1 PUSH1 0x40 ADD PUSH1 0x40 MSTORE DUP1 PUSH1 0xD DUP2 MSTORE PUSH1 0x20 ADD PUSH32 0x62616C616E636520257320257300000000000000000000000000000000000000 DUP2 MSTORE POP DUP6 DUP4 PUSH2 0x174F JUMP JUMPDEST DUP1 SWAP2 POP POP SWAP3 SWAP2 POP POP JUMP JUMPDEST PUSH1 0x0 PUSH2 0xFCB PUSH1 0x40 MLOAD DUP1 PUSH1 0x40 ADD PUSH1 0x40 MSTORE DUP1 PUSH1 0xB DUP2 MSTORE PUSH1 0x20 ADD PUSH32 0x7472616E73666572202573000000000000000000000000000000000000000000 DUP2 MSTORE POP DUP4 PUSH2 0x1575 JUMP JUMPDEST DUP4 PUSH20 0xFFFFFFFFFFFFFFFFFFFFFFFFFFFFFFFFFFFFFFFF AND PUSH4 0xA9059CBB DUP5 DUP5 PUSH1 0x40 MLOAD DUP4 PUSH4 0xFFFFFFFF AND PUSH1 0xE0 SHL DUP2 MSTORE PUSH1 0x4 ADD PUSH2 0x1006 SWAP3 SWAP2 SWAP1 PUSH2 0x20A9 JUMP JUMPDEST PUSH1 0x20 PUSH1 0x40 MLOAD DUP1 DUP4 SUB DUP2 PUSH1 0x0 DUP8 GAS CALL ISZERO DUP1 ISZERO PUSH2 0x1025 JUMPI RETURNDATASIZE PUSH1 0x0 DUP1 RETURNDATACOPY RETURNDATASIZE PUSH1 0x0 REVERT JUMPDEST POP POP POP POP PUSH1 0x40 MLOAD RETURNDATASIZE PUSH1 0x1F NOT PUSH1 0x1F DUP3 ADD AND DUP3 ADD DUP1 PUSH1 0x40 MSTORE POP DUP2 ADD SWAP1 PUSH2 0x1049 SWAP2 SWAP1 PUSH2 0x207C JUMP JUMPDEST SWAP1 POP SWAP4 SWAP3 POP POP POP JUMP JUMPDEST DUP1 PUSH20 0xFFFFFFFFFFFFFFFFFFFFFFFFFFFFFFFFFFFFFFFF AND PUSH4 0x95EA7B3 DUP4 PUSH32 0xFFFFFFFFFFFFFFFFFFFFFFFFFFFFFFFFFFFFFFFFFFFFFFFFFFFFFFFFFFFFFFFF PUSH1 0x40 MLOAD DUP4 PUSH4 0xFFFFFFFF AND PUSH1 0xE0 SHL DUP2 MSTORE PUSH1 0x4 ADD PUSH2 0x10AD SWAP3 SWAP2 SWAP1 PUSH2 0x20A9 JUMP JUMPDEST PUSH1 0x20 PUSH1 0x40 MLOAD DUP1 DUP4 SUB DUP2 PUSH1 0x0 DUP8 GAS CALL ISZERO DUP1 ISZERO PUSH2 0x10CC JUMPI RETURNDATASIZE PUSH1 0x0 DUP1 RETURNDATACOPY RETURNDATASIZE PUSH1 0x0 REVERT JUMPDEST POP POP POP POP PUSH1 0x40 MLOAD RETURNDATASIZE PUSH1 0x1F NOT PUSH1 0x1F DUP3 ADD AND DUP3 ADD DUP1 PUSH1 0x40 MSTORE POP DUP2 ADD SWAP1 PUSH2 0x10F0 SWAP2 SWAP1 PUSH2 0x207C JUMP JUMPDEST POP PUSH1 0x0 DUP3 SWAP1 POP DUP1 PUSH20 0xFFFFFFFFFFFFFFFFFFFFFFFFFFFFFFFFFFFFFFFF AND PUSH4 0x573ADE81 DUP4 PUSH32 0xFFFFFFFFFFFFFFFFFFFFFFFFFFFFFFFFFFFFFFFFFFFFFFFFFFFFFFFFFFFFFFFF PUSH1 0x1 ADDRESS PUSH1 0x40 MLOAD DUP6 PUSH4 0xFFFFFFFF AND PUSH1 0xE0 SHL DUP2 MSTORE PUSH1 0x4 ADD PUSH2 0x1156 SWAP5 SWAP4 SWAP3 SWAP2 SWAP1 PUSH2 0x2117 JUMP JUMPDEST PUSH1 0x20 PUSH1 0x40 MLOAD DUP1 DUP4 SUB DUP2 PUSH1 0x0 DUP8 GAS CALL ISZERO DUP1 ISZERO PUSH2 0x1175 JUMPI RETURNDATASIZE PUSH1 0x0 DUP1 RETURNDATACOPY RETURNDATASIZE PUSH1 0x0 REVERT JUMPDEST POP POP POP POP PUSH1 0x40 MLOAD RETURNDATASIZE PUSH1 0x1F NOT PUSH1 0x1F DUP3 ADD AND DUP3 ADD DUP1 PUSH1 0x40 MSTORE POP DUP2 ADD SWAP1 PUSH2 0x1199 SWAP2 SWAP1 PUSH2 0x1FEC JUMP JUMPDEST POP POP POP POP JUMP JUMPDEST PUSH1 0x0 DUP1 PUSH1 0x2 PUSH8 0xFFFFFFFFFFFFFFFF DUP2 GT ISZERO PUSH2 0x11BD JUMPI PUSH2 0x11BC PUSH2 0x1C05 JUMP JUMPDEST JUMPDEST PUSH1 0x40 MLOAD SWAP1 DUP1 DUP3 MSTORE DUP1 PUSH1 0x20 MUL PUSH1 0x20 ADD DUP3 ADD PUSH1 0x40 MSTORE DUP1 ISZERO PUSH2 0x11EB JUMPI DUP2 PUSH1 0x20 ADD PUSH1 0x20 DUP3 MUL DUP1 CALLDATASIZE DUP4 CALLDATACOPY DUP1 DUP3 ADD SWAP2 POP POP SWAP1 POP JUMPDEST POP SWAP1 POP DUP5 DUP2 PUSH1 0x0 DUP2 MLOAD DUP2 LT PUSH2 0x1203 JUMPI PUSH2 0x1202 PUSH2 0x215C JUMP JUMPDEST JUMPDEST PUSH1 0x20 MUL PUSH1 0x20 ADD ADD SWAP1 PUSH20 0xFFFFFFFFFFFFFFFFFFFFFFFFFFFFFFFFFFFFFFFF AND SWAP1 DUP2 PUSH20 0xFFFFFFFFFFFFFFFFFFFFFFFFFFFFFFFFFFFFFFFF AND DUP2 MSTORE POP POP DUP4 DUP2 PUSH1 0x1 DUP2 MLOAD DUP2 LT PUSH2 0x1252 JUMPI PUSH2 0x1251 PUSH2 0x215C JUMP JUMPDEST JUMPDEST PUSH1 0x20 MUL PUSH1 0x20 ADD ADD SWAP1 PUSH20 0xFFFFFFFFFFFFFFFFFFFFFFFFFFFFFFFFFFFFFFFF AND SWAP1 DUP2 PUSH20 0xFFFFFFFFFFFFFFFFFFFFFFFFFFFFFFFFFFFFFFFF AND DUP2 MSTORE POP POP PUSH1 0x0 DUP4 PUSH20 0xFFFFFFFFFFFFFFFFFFFFFFFFFFFFFFFFFFFFFFFF AND PUSH4 0xD06CA61F DUP9 DUP5 PUSH1 0x40 MLOAD DUP4 PUSH4 0xFFFFFFFF AND PUSH1 0xE0 SHL DUP2 MSTORE PUSH1 0x4 ADD PUSH2 0x12C9 SWAP3 SWAP2 SWAP1 PUSH2 0x251C JUMP JUMPDEST PUSH1 0x0 PUSH1 0x40 MLOAD DUP1 DUP4 SUB DUP2 DUP7 GAS STATICCALL ISZERO DUP1 ISZERO PUSH2 0x12E6 JUMPI RETURNDATASIZE PUSH1 0x0 DUP1 RETURNDATACOPY RETURNDATASIZE PUSH1 0x0 REVERT JUMPDEST POP POP POP POP PUSH1 0x40 MLOAD RETURNDATASIZE PUSH1 0x0 DUP3 RETURNDATACOPY RETURNDATASIZE PUSH1 0x1F NOT PUSH1 0x1F DUP3 ADD AND DUP3 ADD DUP1 PUSH1 0x40 MSTORE POP DUP2 ADD SWAP1 PUSH2 0x130F SWAP2 SWAP1 PUSH2 0x23FC JUMP JUMPDEST SWAP1 POP PUSH2 0x136B PUSH1 0x40 MLOAD DUP1 PUSH1 0x40 ADD PUSH1 0x40 MSTORE DUP1 PUSH1 0xA DUP2 MSTORE PUSH1 0x20 ADD PUSH32 0x616D6F756E743020257300000000000000000000000000000000000000000000 DUP2 MSTORE POP DUP3 PUSH1 0x0 DUP2 MLOAD DUP2 LT PUSH2 0x135E JUMPI PUSH2 0x135D PUSH2 0x215C JUMP JUMPDEST JUMPDEST PUSH1 0x20 MUL PUSH1 0x20 ADD ADD MLOAD PUSH2 0x1575 JUMP JUMPDEST PUSH2 0x13C5 PUSH1 0x40 MLOAD DUP1 PUSH1 0x40 ADD PUSH1 0x40 MSTORE DUP1 PUSH1 0xA DUP2 MSTORE PUSH1 0x20 ADD PUSH32 0x616D6F756E743120257300000000000000000000000000000000000000000000 DUP2 MSTORE POP DUP3 PUSH1 0x1 DUP2 MLOAD DUP2 LT PUSH2 0x13B8 JUMPI PUSH2 0x13B7 PUSH2 0x215C JUMP JUMPDEST JUMPDEST PUSH1 0x20 MUL PUSH1 0x20 ADD ADD MLOAD PUSH2 0x1575 JUMP JUMPDEST DUP1 PUSH1 0x1 DUP2 MLOAD DUP2 LT PUSH2 0x13D9 JUMPI PUSH2 0x13D8 PUSH2 0x215C JUMP JUMPDEST JUMPDEST PUSH1 0x20 MUL PUSH1 0x20 ADD ADD MLOAD SWAP3 POP POP POP SWAP5 SWAP4 POP POP POP POP JUMP JUMPDEST PUSH1 0x0 PUSH2 0x142E PUSH1 0x40 MLOAD DUP1 PUSH1 0x40 ADD PUSH1 0x40 MSTORE DUP1 PUSH1 0xE DUP2 MSTORE PUSH1 0x20 ADD PUSH32 0x6D73672E73656E64657220257320000000000000000000000000000000000000 DUP2 MSTORE POP CALLER PUSH2 0x17EE JUMP JUMPDEST CALLER SWAP1 POP SWAP1 JUMP JUMPDEST PUSH1 0x0 DUP1 PUSH1 0x0 DUP1 PUSH1 0x0 DUP1 PUSH1 0x0 DUP9 SWAP1 POP DUP1 PUSH20 0xFFFFFFFFFFFFFFFFFFFFFFFFFFFFFFFFFFFFFFFF AND PUSH4 0xBF92857C DUP10 PUSH1 0x40 MLOAD DUP3 PUSH4 0xFFFFFFFF AND PUSH1 0xE0 SHL DUP2 MSTORE PUSH1 0x4 ADD PUSH2 0x147B SWAP2 SWAP1 PUSH2 0x1DAE JUMP JUMPDEST PUSH1 0xC0 PUSH1 0x40 MLOAD DUP1 DUP4 SUB DUP2 DUP7 GAS STATICCALL ISZERO DUP1 ISZERO PUSH2 0x1498 JUMPI RETURNDATASIZE PUSH1 0x0 DUP1 RETURNDATACOPY RETURNDATASIZE PUSH1 0x0 REVERT JUMPDEST POP POP POP POP PUSH1 0x40 MLOAD RETURNDATASIZE PUSH1 0x1F NOT PUSH1 0x1F DUP3 ADD AND DUP3 ADD DUP1 PUSH1 0x40 MSTORE POP DUP2 ADD SWAP1 PUSH2 0x14BC SWAP2 SWAP1 PUSH2 0x1E3F JUMP JUMPDEST SWAP7 POP SWAP7 POP SWAP7 POP SWAP7 POP SWAP7 POP SWAP7 POP POP SWAP3 SWAP6 POP SWAP3 SWAP6 POP SWAP3 SWAP6 JUMP JUMPDEST PUSH2 0x156F DUP5 DUP5 DUP5 DUP5 PUSH1 0x40 MLOAD PUSH1 0x24 ADD PUSH2 0x14ED SWAP5 SWAP4 SWAP3 SWAP2 SWAP1 PUSH2 0x25D4 JUMP JUMPDEST PUSH1 0x40 MLOAD PUSH1 0x20 DUP2 DUP4 SUB SUB DUP2 MSTORE SWAP1 PUSH1 0x40 MSTORE PUSH32 0xA7A8785300000000000000000000000000000000000000000000000000000000 PUSH28 0xFFFFFFFFFFFFFFFFFFFFFFFFFFFFFFFFFFFFFFFFFFFFFFFFFFFFFFFF NOT AND PUSH1 0x20 DUP3 ADD DUP1 MLOAD PUSH28 0xFFFFFFFFFFFFFFFFFFFFFFFFFFFFFFFFFFFFFFFFFFFFFFFFFFFFFFFF DUP4 DUP2 DUP4 AND OR DUP4 MSTORE POP POP POP POP PUSH2 0x188A JUMP JUMPDEST POP POP POP POP JUMP JUMPDEST PUSH2 0x160D DUP3 DUP3 PUSH1 0x40 MLOAD PUSH1 0x24 ADD PUSH2 0x158B SWAP3 SWAP2 SWAP1 PUSH2 0x2620 JUMP JUMPDEST PUSH1 0x40 MLOAD PUSH1 0x20 DUP2 DUP4 SUB SUB DUP2 MSTORE SWAP1 PUSH1 0x40 MSTORE PUSH32 0xB60E72CC00000000000000000000000000000000000000000000000000000000 PUSH28 0xFFFFFFFFFFFFFFFFFFFFFFFFFFFFFFFFFFFFFFFFFFFFFFFFFFFFFFFF NOT AND PUSH1 0x20 DUP3 ADD DUP1 MLOAD PUSH28 0xFFFFFFFFFFFFFFFFFFFFFFFFFFFFFFFFFFFFFFFFFFFFFFFFFFFFFFFF DUP4 DUP2 DUP4 AND OR DUP4 MSTORE POP POP POP POP PUSH2 0x188A JUMP JUMPDEST POP POP JUMP JUMPDEST PUSH2 0x16AB DUP4 DUP4 DUP4 PUSH1 0x40 MLOAD PUSH1 0x24 ADD PUSH2 0x1629 SWAP4 SWAP3 SWAP2 SWAP1 PUSH2 0x2650 JUMP JUMPDEST PUSH1 0x40 MLOAD PUSH1 0x20 DUP2 DUP4 SUB SUB DUP2 MSTORE SWAP1 PUSH1 0x40 MSTORE PUSH32 0x5970E08900000000000000000000000000000000000000000000000000000000 PUSH28 0xFFFFFFFFFFFFFFFFFFFFFFFFFFFFFFFFFFFFFFFFFFFFFFFFFFFFFFFF NOT AND PUSH1 0x20 DUP3 ADD DUP1 MLOAD PUSH28 0xFFFFFFFFFFFFFFFFFFFFFFFFFFFFFFFFFFFFFFFFFFFFFFFFFFFFFFFF DUP4 DUP2 DUP4 AND OR DUP4 MSTORE POP POP POP POP PUSH2 0x188A JUMP JUMPDEST POP POP POP JUMP JUMPDEST PUSH2 0x174A DUP4 DUP4 DUP4 PUSH1 0x40 MLOAD PUSH1 0x24 ADD PUSH2 0x16C8 SWAP4 SWAP3 SWAP2 SWAP1 PUSH2 0x2695 JUMP JUMPDEST PUSH1 0x40 MLOAD PUSH1 0x20 DUP2 DUP4 SUB SUB DUP2 MSTORE SWAP1 PUSH1 0x40 MSTORE PUSH32 0x1C7EC44800000000000000000000000000000000000000000000000000000000 PUSH28 0xFFFFFFFFFFFFFFFFFFFFFFFFFFFFFFFFFFFFFFFFFFFFFFFFFFFFFFFF NOT AND PUSH1 0x20 DUP3 ADD DUP1 MLOAD PUSH28 0xFFFFFFFFFFFFFFFFFFFFFFFFFFFFFFFFFFFFFFFFFFFFFFFFFFFFFFFF DUP4 DUP2 DUP4 AND OR DUP4 MSTORE POP POP POP POP PUSH2 0x188A JUMP JUMPDEST POP POP POP JUMP JUMPDEST PUSH2 0x17E9 DUP4 DUP4 DUP4 PUSH1 0x40 MLOAD PUSH1 0x24 ADD PUSH2 0x1767 SWAP4 SWAP3 SWAP2 SWAP1 PUSH2 0x26D3 JUMP JUMPDEST PUSH1 0x40 MLOAD PUSH1 0x20 DUP2 DUP4 SUB SUB DUP2 MSTORE SWAP1 PUSH1 0x40 MSTORE PUSH32 0xD26B92500000000000000000000000000000000000000000000000000000000 PUSH28 0xFFFFFFFFFFFFFFFFFFFFFFFFFFFFFFFFFFFFFFFFFFFFFFFFFFFFFFFF NOT AND PUSH1 0x20 DUP3 ADD DUP1 MLOAD PUSH28 0xFFFFFFFFFFFFFFFFFFFFFFFFFFFFFFFFFFFFFFFFFFFFFFFFFFFFFFFF DUP4 DUP2 DUP4 AND OR DUP4 MSTORE POP POP POP POP PUSH2 0x188A JUMP JUMPDEST POP POP POP JUMP JUMPDEST PUSH2 0x1886 DUP3 DUP3 PUSH1 0x40 MLOAD PUSH1 0x24 ADD PUSH2 0x1804 SWAP3 SWAP2 SWAP1 PUSH2 0x2711 JUMP JUMPDEST PUSH1 0x40 MLOAD PUSH1 0x20 DUP2 DUP4 SUB SUB DUP2 MSTORE SWAP1 PUSH1 0x40 MSTORE PUSH32 0x319AF33300000000000000000000000000000000000000000000000000000000 PUSH28 0xFFFFFFFFFFFFFFFFFFFFFFFFFFFFFFFFFFFFFFFFFFFFFFFFFFFFFFFF NOT AND PUSH1 0x20 DUP3 ADD DUP1 MLOAD PUSH28 0xFFFFFFFFFFFFFFFFFFFFFFFFFFFFFFFFFFFFFFFFFFFFFFFFFFFFFFFF DUP4 DUP2 DUP4 AND OR DUP4 MSTORE POP POP POP POP PUSH2 0x188A JUMP JUMPDEST POP POP JUMP JUMPDEST PUSH1 0x0 DUP2 MLOAD SWAP1 POP PUSH1 0x0 PUSH11 0x636F6E736F6C652E6C6F67 SWAP1 POP PUSH1 0x20 DUP4 ADD PUSH1 0x0 DUP1 DUP5 DUP4 DUP6 GAS STATICCALL POP POP POP POP POP JUMP JUMPDEST PUSH1 0x0 PUSH1 0x40 MLOAD SWAP1 POP SWAP1 JUMP JUMPDEST PUSH1 0x0 DUP1 REVERT JUMPDEST PUSH1 0x0 DUP1 REVERT JUMPDEST PUSH1 0x0 PUSH20 0xFFFFFFFFFFFFFFFFFFFFFFFFFFFFFFFFFFFFFFFF DUP3 AND SWAP1 POP SWAP2 SWAP1 POP JUMP JUMPDEST PUSH1 0x0 PUSH2 0x18F2 DUP3 PUSH2 0x18C7 JUMP JUMPDEST SWAP1 POP SWAP2 SWAP1 POP JUMP JUMPDEST PUSH2 0x1902 DUP2 PUSH2 0x18E7 JUMP JUMPDEST DUP2 EQ PUSH2 0x190D JUMPI PUSH1 0x0 DUP1 REVERT JUMPDEST POP JUMP JUMPDEST PUSH1 0x0 DUP2 CALLDATALOAD SWAP1 POP PUSH2 0x191F DUP2 PUSH2 0x18F9 JUMP JUMPDEST SWAP3 SWAP2 POP POP JUMP JUMPDEST PUSH1 0x0 DUP1 PUSH1 0x0 DUP1 PUSH1 0x80 DUP6 DUP8 SUB SLT ISZERO PUSH2 0x193F JUMPI PUSH2 0x193E PUSH2 0x18BD JUMP JUMPDEST JUMPDEST PUSH1 0x0 PUSH2 0x194D DUP8 DUP3 DUP9 ADD PUSH2 0x1910 JUMP JUMPDEST SWAP5 POP POP PUSH1 0x20 PUSH2 0x195E DUP8 DUP3 DUP9 ADD PUSH2 0x1910 JUMP JUMPDEST SWAP4 POP POP PUSH1 0x40 PUSH2 0x196F DUP8 DUP3 DUP9 ADD PUSH2 0x1910 JUMP JUMPDEST SWAP3 POP POP PUSH1 0x60 PUSH2 0x1980 DUP8 DUP3 DUP9 ADD PUSH2 0x1910 JUMP JUMPDEST SWAP2 POP POP SWAP3 SWAP6 SWAP2 SWAP5 POP SWAP3 POP JUMP JUMPDEST PUSH1 0x0 DUP2 SWAP1 POP SWAP2 SWAP1 POP JUMP JUMPDEST PUSH2 0x199F DUP2 PUSH2 0x198C JUMP JUMPDEST DUP3 MSTORE POP POP JUMP JUMPDEST PUSH1 0x0 PUSH1 0x20 DUP3 ADD SWAP1 POP PUSH2 0x19BA PUSH1 0x0 DUP4 ADD DUP5 PUSH2 0x1996 JUMP JUMPDEST SWAP3 SWAP2 POP POP JUMP JUMPDEST PUSH2 0x19C9 DUP2 PUSH2 0x198C JUMP JUMPDEST DUP2 EQ PUSH2 0x19D4 JUMPI PUSH1 0x0 DUP1 REVERT JUMPDEST POP JUMP JUMPDEST PUSH1 0x0 DUP2 CALLDATALOAD SWAP1 POP PUSH2 0x19E6 DUP2 PUSH2 0x19C0 JUMP JUMPDEST SWAP3 SWAP2 POP POP JUMP JUMPDEST PUSH1 0x0 DUP1 PUSH1 0x0 DUP1 PUSH1 0x80 DUP6 DUP8 SUB SLT ISZERO PUSH2 0x1A06 JUMPI PUSH2 0x1A05 PUSH2 0x18BD JUMP JUMPDEST JUMPDEST PUSH1 0x0 PUSH2 0x1A14 DUP8 DUP3 DUP9 ADD PUSH2 0x1910 JUMP JUMPDEST SWAP5 POP POP PUSH1 0x20 PUSH2 0x1A25 DUP8 DUP3 DUP9 ADD PUSH2 0x1910 JUMP JUMPDEST SWAP4 POP POP PUSH1 0x40 PUSH2 0x1A36 DUP8 DUP3 DUP9 ADD PUSH2 0x19D7 JUMP JUMPDEST SWAP3 POP POP PUSH1 0x60 PUSH2 0x1A47 DUP8 DUP3 DUP9 ADD PUSH2 0x1910 JUMP JUMPDEST SWAP2 POP POP SWAP3 SWAP6 SWAP2 SWAP5 POP SWAP3 POP JUMP JUMPDEST PUSH1 0x0 DUP1 PUSH1 0x0 DUP1 PUSH1 0x80 DUP6 DUP8 SUB SLT ISZERO PUSH2 0x1A6D JUMPI PUSH2 0x1A6C PUSH2 0x18BD JUMP JUMPDEST JUMPDEST PUSH1 0x0 PUSH2 0x1A7B DUP8 DUP3 DUP9 ADD PUSH2 0x1910 JUMP JUMPDEST SWAP5 POP POP PUSH1 0x20 PUSH2 0x1A8C DUP8 DUP3 DUP9 ADD PUSH2 0x1910 JUMP JUMPDEST SWAP4 POP POP PUSH1 0x40 PUSH2 0x1A9D DUP8 DUP3 DUP9 ADD PUSH2 0x1910 JUMP JUMPDEST SWAP3 POP POP PUSH1 0x60 PUSH2 0x1AAE DUP8 DUP3 DUP9 ADD PUSH2 0x19D7 JUMP JUMPDEST SWAP2 POP POP SWAP3 SWAP6 SWAP2 SWAP5 POP SWAP3 POP JUMP JUMPDEST PUSH1 0x0 DUP2 ISZERO ISZERO SWAP1 POP SWAP2 SWAP1 POP JUMP JUMPDEST PUSH2 0x1ACF DUP2 PUSH2 0x1ABA JUMP JUMPDEST DUP3 MSTORE POP POP JUMP JUMPDEST PUSH1 0x0 PUSH1 0x20 DUP3 ADD SWAP1 POP PUSH2 0x1AEA PUSH1 0x0 DUP4 ADD DUP5 PUSH2 0x1AC6 JUMP JUMPDEST SWAP3 SWAP2 POP POP JUMP JUMPDEST PUSH1 0x0 DUP1 PUSH1 0x0 PUSH1 0x60 DUP5 DUP7 SUB SLT ISZERO PUSH2 0x1B09 JUMPI PUSH2 0x1B08 PUSH2 0x18BD JUMP JUMPDEST JUMPDEST PUSH1 0x0 PUSH2 0x1B17 DUP7 DUP3 DUP8 ADD PUSH2 0x1910 JUMP JUMPDEST SWAP4 POP POP PUSH1 0x20 PUSH2 0x1B28 DUP7 DUP3 DUP8 ADD PUSH2 0x1910 JUMP JUMPDEST SWAP3 POP POP PUSH1 0x40 PUSH2 0x1B39 DUP7 DUP3 DUP8 ADD PUSH2 0x19D7 JUMP JUMPDEST SWAP2 POP POP SWAP3 POP SWAP3 POP SWAP3 JUMP JUMPDEST PUSH1 0x0 DUP1 PUSH1 0x0 DUP1 PUSH1 0x80 DUP6 DUP8 SUB SLT ISZERO PUSH2 0x1B5D JUMPI PUSH2 0x1B5C PUSH2 0x18BD JUMP JUMPDEST JUMPDEST PUSH1 0x0 PUSH2 0x1B6B DUP8 DUP3 DUP9 ADD PUSH2 0x19D7 JUMP JUMPDEST SWAP5 POP POP PUSH1 0x20 PUSH2 0x1B7C DUP8 DUP3 DUP9 ADD PUSH2 0x1910 JUMP JUMPDEST SWAP4 POP POP PUSH1 0x40 PUSH2 0x1B8D DUP8 DUP3 DUP9 ADD PUSH2 0x1910 JUMP JUMPDEST SWAP3 POP POP PUSH1 0x60 PUSH2 0x1B9E DUP8 DUP3 DUP9 ADD PUSH2 0x1910 JUMP JUMPDEST SWAP2 POP POP SWAP3 SWAP6 SWAP2 SWAP5 POP SWAP3 POP JUMP JUMPDEST PUSH1 0x0 DUP1 PUSH1 0x40 DUP4 DUP6 SUB SLT ISZERO PUSH2 0x1BC1 JUMPI PUSH2 0x1BC0 PUSH2 0x18BD JUMP JUMPDEST JUMPDEST PUSH1 0x0 PUSH2 0x1BCF DUP6 DUP3 DUP7 ADD PUSH2 0x1910 JUMP JUMPDEST SWAP3 POP POP PUSH1 0x20 PUSH2 0x1BE0 DUP6 DUP3 DUP7 ADD PUSH2 0x1910 JUMP JUMPDEST SWAP2 POP POP SWAP3 POP SWAP3 SWAP1 POP JUMP JUMPDEST PUSH1 0x0 DUP1 REVERT JUMPDEST PUSH1 0x0 DUP1 REVERT JUMPDEST PUSH1 0x0 PUSH1 0x1F NOT PUSH1 0x1F DUP4 ADD AND SWAP1 POP SWAP2 SWAP1 POP JUMP JUMPDEST PUSH32 0x4E487B7100000000000000000000000000000000000000000000000000000000 PUSH1 0x0 MSTORE PUSH1 0x41 PUSH1 0x4 MSTORE PUSH1 0x24 PUSH1 0x0 REVERT JUMPDEST PUSH2 0x1C3D DUP3 PUSH2 0x1BF4 JUMP JUMPDEST DUP2 ADD DUP2 DUP2 LT PUSH8 0xFFFFFFFFFFFFFFFF DUP3 GT OR ISZERO PUSH2 0x1C5C JUMPI PUSH2 0x1C5B PUSH2 0x1C05 JUMP JUMPDEST JUMPDEST DUP1 PUSH1 0x40 MSTORE POP POP POP JUMP JUMPDEST PUSH1 0x0 PUSH2 0x1C6F PUSH2 0x18B3 JUMP JUMPDEST SWAP1 POP PUSH2 0x1C7B DUP3 DUP3 PUSH2 0x1C34 JUMP JUMPDEST SWAP2 SWAP1 POP JUMP JUMPDEST PUSH1 0x0 PUSH8 0xFFFFFFFFFFFFFFFF DUP3 GT ISZERO PUSH2 0x1C9B JUMPI PUSH2 0x1C9A PUSH2 0x1C05 JUMP JUMPDEST JUMPDEST PUSH2 0x1CA4 DUP3 PUSH2 0x1BF4 JUMP JUMPDEST SWAP1 POP PUSH1 0x20 DUP2 ADD SWAP1 POP SWAP2 SWAP1 POP JUMP JUMPDEST DUP3 DUP2 DUP4 CALLDATACOPY PUSH1 0x0 DUP4 DUP4 ADD MSTORE POP POP POP JUMP JUMPDEST PUSH1 0x0 PUSH2 0x1CD3 PUSH2 0x1CCE DUP5 PUSH2 0x1C80 JUMP JUMPDEST PUSH2 0x1C65 JUMP JUMPDEST SWAP1 POP DUP3 DUP2 MSTORE PUSH1 0x20 DUP2 ADD DUP5 DUP5 DUP5 ADD GT ISZERO PUSH2 0x1CEF JUMPI PUSH2 0x1CEE PUSH2 0x1BEF JUMP JUMPDEST JUMPDEST PUSH2 0x1CFA DUP5 DUP3 DUP6 PUSH2 0x1CB1 JUMP JUMPDEST POP SWAP4 SWAP3 POP POP POP JUMP JUMPDEST PUSH1 0x0 DUP3 PUSH1 0x1F DUP4 ADD SLT PUSH2 0x1D17 JUMPI PUSH2 0x1D16 PUSH2 0x1BEA JUMP JUMPDEST JUMPDEST DUP2 CALLDATALOAD PUSH2 0x1D27 DUP5 DUP3 PUSH1 0x20 DUP7 ADD PUSH2 0x1CC0 JUMP JUMPDEST SWAP2 POP POP SWAP3 SWAP2 POP POP JUMP JUMPDEST PUSH1 0x0 DUP1 PUSH1 0x0 PUSH1 0x60 DUP5 DUP7 SUB SLT ISZERO PUSH2 0x1D49 JUMPI PUSH2 0x1D48 PUSH2 0x18BD JUMP JUMPDEST JUMPDEST PUSH1 0x0 PUSH2 0x1D57 DUP7 DUP3 DUP8 ADD PUSH2 0x1910 JUMP JUMPDEST SWAP4 POP POP PUSH1 0x20 PUSH2 0x1D68 DUP7 DUP3 DUP8 ADD PUSH2 0x1910 JUMP JUMPDEST SWAP3 POP POP PUSH1 0x40 DUP5 ADD CALLDATALOAD PUSH8 0xFFFFFFFFFFFFFFFF DUP2 GT ISZERO PUSH2 0x1D89 JUMPI PUSH2 0x1D88 PUSH2 0x18C2 JUMP JUMPDEST JUMPDEST PUSH2 0x1D95 DUP7 DUP3 DUP8 ADD PUSH2 0x1D02 JUMP JUMPDEST SWAP2 POP POP SWAP3 POP SWAP3 POP SWAP3 JUMP JUMPDEST PUSH2 0x1DA8 DUP2 PUSH2 0x18E7 JUMP JUMPDEST DUP3 MSTORE POP POP JUMP JUMPDEST PUSH1 0x0 PUSH1 0x20 DUP3 ADD SWAP1 POP PUSH2 0x1DC3 PUSH1 0x0 DUP4 ADD DUP5 PUSH2 0x1D9F JUMP JUMPDEST SWAP3 SWAP2 POP POP JUMP JUMPDEST PUSH1 0x0 PUSH1 0xC0 DUP3 ADD SWAP1 POP PUSH2 0x1DDE PUSH1 0x0 DUP4 ADD DUP10 PUSH2 0x1996 JUMP JUMPDEST PUSH2 0x1DEB PUSH1 0x20 DUP4 ADD DUP9 PUSH2 0x1996 JUMP JUMPDEST PUSH2 0x1DF8 PUSH1 0x40 DUP4 ADD DUP8 PUSH2 0x1996 JUMP JUMPDEST PUSH2 0x1E05 PUSH1 0x60 DUP4 ADD DUP7 PUSH2 0x1996 JUMP JUMPDEST PUSH2 0x1E12 PUSH1 0x80 DUP4 ADD DUP6 PUSH2 0x1996 JUMP JUMPDEST PUSH2 0x1E1F PUSH1 0xA0 DUP4 ADD DUP5 PUSH2 0x1996 JUMP JUMPDEST SWAP8 SWAP7 POP POP POP POP POP POP POP JUMP JUMPDEST PUSH1 0x0 DUP2 MLOAD SWAP1 POP PUSH2 0x1E39 DUP2 PUSH2 0x19C0 JUMP JUMPDEST SWAP3 SWAP2 POP POP JUMP JUMPDEST PUSH1 0x0 DUP1 PUSH1 0x0 DUP1 PUSH1 0x0 DUP1 PUSH1 0xC0 DUP8 DUP10 SUB SLT ISZERO PUSH2 0x1E5C JUMPI PUSH2 0x1E5B PUSH2 0x18BD JUMP JUMPDEST JUMPDEST PUSH1 0x0 PUSH2 0x1E6A DUP10 DUP3 DUP11 ADD PUSH2 0x1E2A JUMP JUMPDEST SWAP7 POP POP PUSH1 0x20 PUSH2 0x1E7B DUP10 DUP3 DUP11 ADD PUSH2 0x1E2A JUMP JUMPDEST SWAP6 POP POP PUSH1 0x40 PUSH2 0x1E8C DUP10 DUP3 DUP11 ADD PUSH2 0x1E2A JUMP JUMPDEST SWAP5 POP POP PUSH1 0x60 PUSH2 0x1E9D DUP10 DUP3 DUP11 ADD PUSH2 0x1E2A JUMP JUMPDEST SWAP4 POP POP PUSH1 0x80 PUSH2 0x1EAE DUP10 DUP3 DUP11 ADD PUSH2 0x1E2A JUMP JUMPDEST SWAP3 POP POP PUSH1 0xA0 PUSH2 0x1EBF DUP10 DUP3 DUP11 ADD PUSH2 0x1E2A JUMP JUMPDEST SWAP2 POP POP SWAP3 SWAP6 POP SWAP3 SWAP6 POP SWAP3 SWAP6 JUMP JUMPDEST PUSH32 0x4E487B7100000000000000000000000000000000000000000000000000000000 PUSH1 0x0 MSTORE PUSH1 0x12 PUSH1 0x4 MSTORE PUSH1 0x24 PUSH1 0x0 REVERT JUMPDEST PUSH32 0x4E487B7100000000000000000000000000000000000000000000000000000000 PUSH1 0x0 MSTORE PUSH1 0x11 PUSH1 0x4 MSTORE PUSH1 0x24 PUSH1 0x0 REVERT JUMPDEST PUSH1 0x0 PUSH2 0x1F35 DUP3 PUSH2 0x198C JUMP JUMPDEST SWAP2 POP PUSH2 0x1F40 DUP4 PUSH2 0x198C JUMP JUMPDEST SWAP3 POP DUP3 PUSH2 0x1F50 JUMPI PUSH2 0x1F4F PUSH2 0x1ECC JUMP JUMPDEST JUMPDEST DUP3 DUP3 DIV SWAP1 POP SWAP3 SWAP2 POP POP JUMP JUMPDEST PUSH1 0x0 PUSH2 0x1F66 DUP3 PUSH2 0x198C JUMP JUMPDEST SWAP2 POP PUSH2 0x1F71 DUP4 PUSH2 0x198C JUMP JUMPDEST SWAP3 POP DUP2 PUSH32 0xFFFFFFFFFFFFFFFFFFFFFFFFFFFFFFFFFFFFFFFFFFFFFFFFFFFFFFFFFFFFFFFF DIV DUP4 GT DUP3 ISZERO ISZERO AND ISZERO PUSH2 0x1FAA JUMPI PUSH2 0x1FA9 PUSH2 0x1EFB JUMP JUMPDEST JUMPDEST DUP3 DUP3 MUL SWAP1 POP SWAP3 SWAP2 POP POP JUMP JUMPDEST PUSH1 0x0 PUSH1 0x60 DUP3 ADD SWAP1 POP PUSH2 0x1FCA PUSH1 0x0 DUP4 ADD DUP7 PUSH2 0x1D9F JUMP JUMPDEST PUSH2 0x1FD7 PUSH1 0x20 DUP4 ADD DUP6 PUSH2 0x1996 JUMP JUMPDEST PUSH2 0x1FE4 PUSH1 0x40 DUP4 ADD DUP5 PUSH2 0x1D9F JUMP JUMPDEST SWAP5 SWAP4 POP POP POP POP JUMP JUMPDEST PUSH1 0x0 PUSH1 0x20 DUP3 DUP5 SUB SLT ISZERO PUSH2 0x2002 JUMPI PUSH2 0x2001 PUSH2 0x18BD JUMP JUMPDEST JUMPDEST PUSH1 0x0 PUSH2 0x2010 DUP5 DUP3 DUP6 ADD PUSH2 0x1E2A JUMP JUMPDEST SWAP2 POP POP SWAP3 SWAP2 POP POP JUMP JUMPDEST PUSH1 0x0 PUSH1 0x60 DUP3 ADD SWAP1 POP PUSH2 0x202E PUSH1 0x0 DUP4 ADD DUP7 PUSH2 0x1D9F JUMP JUMPDEST PUSH2 0x203B PUSH1 0x20 DUP4 ADD DUP6 PUSH2 0x1D9F JUMP JUMPDEST PUSH2 0x2048 PUSH1 0x40 DUP4 ADD DUP5 PUSH2 0x1996 JUMP JUMPDEST SWAP5 SWAP4 POP POP POP POP JUMP JUMPDEST PUSH2 0x2059 DUP2 PUSH2 0x1ABA JUMP JUMPDEST DUP2 EQ PUSH2 0x2064 JUMPI PUSH1 0x0 DUP1 REVERT JUMPDEST POP JUMP JUMPDEST PUSH1 0x0 DUP2 MLOAD SWAP1 POP PUSH2 0x2076 DUP2 PUSH2 0x2050 JUMP JUMPDEST SWAP3 SWAP2 POP POP JUMP JUMPDEST PUSH1 0x0 PUSH1 0x20 DUP3 DUP5 SUB SLT ISZERO PUSH2 0x2092 JUMPI PUSH2 0x2091 PUSH2 0x18BD JUMP JUMPDEST JUMPDEST PUSH1 0x0 PUSH2 0x20A0 DUP5 DUP3 DUP6 ADD PUSH2 0x2067 JUMP JUMPDEST SWAP2 POP POP SWAP3 SWAP2 POP POP JUMP JUMPDEST PUSH1 0x0 PUSH1 0x40 DUP3 ADD SWAP1 POP PUSH2 0x20BE PUSH1 0x0 DUP4 ADD DUP6 PUSH2 0x1D9F JUMP JUMPDEST PUSH2 0x20CB PUSH1 0x20 DUP4 ADD DUP5 PUSH2 0x1996 JUMP JUMPDEST SWAP4 SWAP3 POP POP POP JUMP JUMPDEST PUSH1 0x0 DUP2 SWAP1 POP SWAP2 SWAP1 POP JUMP JUMPDEST PUSH1 0x0 DUP2 SWAP1 POP SWAP2 SWAP1 POP JUMP JUMPDEST PUSH1 0x0 PUSH2 0x2101 PUSH2 0x20FC PUSH2 0x20F7 DUP5 PUSH2 0x20D2 JUMP JUMPDEST PUSH2 0x20DC JUMP JUMPDEST PUSH2 0x198C JUMP JUMPDEST SWAP1 POP SWAP2 SWAP1 POP JUMP JUMPDEST PUSH2 0x2111 DUP2 PUSH2 0x20E6 JUMP JUMPDEST DUP3 MSTORE POP POP JUMP JUMPDEST PUSH1 0x0 PUSH1 0x80 DUP3 ADD SWAP1 POP PUSH2 0x212C PUSH1 0x0 DUP4 ADD DUP8 PUSH2 0x1D9F JUMP JUMPDEST PUSH2 0x2139 PUSH1 0x20 DUP4 ADD DUP7 PUSH2 0x1996 JUMP JUMPDEST PUSH2 0x2146 PUSH1 0x40 DUP4 ADD DUP6 PUSH2 0x2108 JUMP JUMPDEST PUSH2 0x2153 PUSH1 0x60 DUP4 ADD DUP5 PUSH2 0x1D9F JUMP JUMPDEST SWAP6 SWAP5 POP POP POP POP POP JUMP JUMPDEST PUSH32 0x4E487B7100000000000000000000000000000000000000000000000000000000 PUSH1 0x0 MSTORE PUSH1 0x32 PUSH1 0x4 MSTORE PUSH1 0x24 PUSH1 0x0 REVERT JUMPDEST PUSH1 0x0 PUSH2 0x2196 DUP3 PUSH2 0x198C JUMP JUMPDEST SWAP2 POP PUSH2 0x21A1 DUP4 PUSH2 0x198C JUMP JUMPDEST SWAP3 POP DUP3 PUSH32 0xFFFFFFFFFFFFFFFFFFFFFFFFFFFFFFFFFFFFFFFFFFFFFFFFFFFFFFFFFFFFFFFF SUB DUP3 GT ISZERO PUSH2 0x21D6 JUMPI PUSH2 0x21D5 PUSH2 0x1EFB JUMP JUMPDEST JUMPDEST DUP3 DUP3 ADD SWAP1 POP SWAP3 SWAP2 POP POP JUMP JUMPDEST PUSH1 0x0 DUP2 SWAP1 POP SWAP2 SWAP1 POP JUMP JUMPDEST PUSH1 0x0 PUSH2 0x2206 PUSH2 0x2201 PUSH2 0x21FC DUP5 PUSH2 0x21E1 JUMP JUMPDEST PUSH2 0x20DC JUMP JUMPDEST PUSH2 0x198C JUMP JUMPDEST SWAP1 POP SWAP2 SWAP1 POP JUMP JUMPDEST PUSH2 0x2216 DUP2 PUSH2 0x21EB JUMP JUMPDEST DUP3 MSTORE POP POP JUMP JUMPDEST PUSH1 0x0 DUP2 MLOAD SWAP1 POP SWAP2 SWAP1 POP JUMP JUMPDEST PUSH1 0x0 DUP3 DUP3 MSTORE PUSH1 0x20 DUP3 ADD SWAP1 POP SWAP3 SWAP2 POP POP JUMP JUMPDEST PUSH1 0x0 DUP2 SWAP1 POP PUSH1 0x20 DUP3 ADD SWAP1 POP SWAP2 SWAP1 POP JUMP JUMPDEST PUSH2 0x2251 DUP2 PUSH2 0x18E7 JUMP JUMPDEST DUP3 MSTORE POP POP JUMP JUMPDEST PUSH1 0x0 PUSH2 0x2263 DUP4 DUP4 PUSH2 0x2248 JUMP JUMPDEST PUSH1 0x20 DUP4 ADD SWAP1 POP SWAP3 SWAP2 POP POP JUMP JUMPDEST PUSH1 0x0 PUSH1 0x20 DUP3 ADD SWAP1 POP SWAP2 SWAP1 POP JUMP JUMPDEST PUSH1 0x0 PUSH2 0x2287 DUP3 PUSH2 0x221C JUMP JUMPDEST PUSH2 0x2291 DUP2 DUP6 PUSH2 0x2227 JUMP JUMPDEST SWAP4 POP PUSH2 0x229C DUP4 PUSH2 0x2238 JUMP JUMPDEST DUP1 PUSH1 0x0 JUMPDEST DUP4 DUP2 LT ISZERO PUSH2 0x22CD JUMPI DUP2 MLOAD PUSH2 0x22B4 DUP9 DUP3 PUSH2 0x2257 JUMP JUMPDEST SWAP8 POP PUSH2 0x22BF DUP4 PUSH2 0x226F JUMP JUMPDEST SWAP3 POP POP PUSH1 0x1 DUP2 ADD SWAP1 POP PUSH2 0x22A0 JUMP JUMPDEST POP DUP6 SWAP4 POP POP POP POP SWAP3 SWAP2 POP POP JUMP JUMPDEST PUSH1 0x0 PUSH1 0xA0 DUP3 ADD SWAP1 POP PUSH2 0x22EF PUSH1 0x0 DUP4 ADD DUP9 PUSH2 0x1996 JUMP JUMPDEST PUSH2 0x22FC PUSH1 0x20 DUP4 ADD DUP8 PUSH2 0x220D JUMP JUMPDEST DUP2 DUP2 SUB PUSH1 0x40 DUP4 ADD MSTORE PUSH2 0x230E DUP2 DUP7 PUSH2 0x227C JUMP JUMPDEST SWAP1 POP PUSH2 0x231D PUSH1 0x60 DUP4 ADD DUP6 PUSH2 0x1D9F JUMP JUMPDEST PUSH2 0x232A PUSH1 0x80 DUP4 ADD DUP5 PUSH2 0x1996 JUMP JUMPDEST SWAP7 SWAP6 POP POP POP POP POP POP JUMP JUMPDEST PUSH1 0x0 PUSH8 0xFFFFFFFFFFFFFFFF DUP3 GT ISZERO PUSH2 0x234F JUMPI PUSH2 0x234E PUSH2 0x1C05 JUMP JUMPDEST JUMPDEST PUSH1 0x20 DUP3 MUL SWAP1 POP PUSH1 0x20 DUP2 ADD SWAP1 POP SWAP2 SWAP1 POP JUMP JUMPDEST PUSH1 0x0 DUP1 REVERT JUMPDEST PUSH1 0x0 PUSH2 0x2378 PUSH2 0x2373 DUP5 PUSH2 0x2334 JUMP JUMPDEST PUSH2 0x1C65 JUMP JUMPDEST SWAP1 POP DUP1 DUP4 DUP3 MSTORE PUSH1 0x20 DUP3 ADD SWAP1 POP PUSH1 0x20 DUP5 MUL DUP4 ADD DUP6 DUP2 GT ISZERO PUSH2 0x239B JUMPI PUSH2 0x239A PUSH2 0x2360 JUMP JUMPDEST JUMPDEST DUP4 JUMPDEST DUP2 DUP2 LT ISZERO PUSH2 0x23C4 JUMPI DUP1 PUSH2 0x23B0 DUP9 DUP3 PUSH2 0x1E2A JUMP JUMPDEST DUP5 MSTORE PUSH1 0x20 DUP5 ADD SWAP4 POP POP PUSH1 0x20 DUP2 ADD SWAP1 POP PUSH2 0x239D JUMP JUMPDEST POP POP POP SWAP4 SWAP3 POP POP POP JUMP JUMPDEST PUSH1 0x0 DUP3 PUSH1 0x1F DUP4 ADD SLT PUSH2 0x23E3 JUMPI PUSH2 0x23E2 PUSH2 0x1BEA JUMP JUMPDEST JUMPDEST DUP2 MLOAD PUSH2 0x23F3 DUP5 DUP3 PUSH1 0x20 DUP7 ADD PUSH2 0x2365 JUMP JUMPDEST SWAP2 POP POP SWAP3 SWAP2 POP POP JUMP JUMPDEST PUSH1 0x0 PUSH1 0x20 DUP3 DUP5 SUB SLT ISZERO PUSH2 0x2412 JUMPI PUSH2 0x2411 PUSH2 0x18BD JUMP JUMPDEST JUMPDEST PUSH1 0x0 DUP3 ADD MLOAD PUSH8 0xFFFFFFFFFFFFFFFF DUP2 GT ISZERO PUSH2 0x2430 JUMPI PUSH2 0x242F PUSH2 0x18C2 JUMP JUMPDEST JUMPDEST PUSH2 0x243C DUP5 DUP3 DUP6 ADD PUSH2 0x23CE JUMP JUMPDEST SWAP2 POP POP SWAP3 SWAP2 POP POP JUMP JUMPDEST PUSH1 0x0 PUSH2 0xFFFF DUP3 AND SWAP1 POP SWAP2 SWAP1 POP JUMP JUMPDEST PUSH1 0x0 PUSH2 0x246E PUSH2 0x2469 PUSH2 0x2464 DUP5 PUSH2 0x21E1 JUMP JUMPDEST PUSH2 0x20DC JUMP JUMPDEST PUSH2 0x2445 JUMP JUMPDEST SWAP1 POP SWAP2 SWAP1 POP JUMP JUMPDEST PUSH2 0x247E DUP2 PUSH2 0x2453 JUMP JUMPDEST DUP3 MSTORE POP POP JUMP JUMPDEST PUSH1 0x0 PUSH1 0xA0 DUP3 ADD SWAP1 POP PUSH2 0x2499 PUSH1 0x0 DUP4 ADD DUP9 PUSH2 0x1D9F JUMP JUMPDEST PUSH2 0x24A6 PUSH1 0x20 DUP4 ADD DUP8 PUSH2 0x1996 JUMP JUMPDEST PUSH2 0x24B3 PUSH1 0x40 DUP4 ADD DUP7 PUSH2 0x2108 JUMP JUMPDEST PUSH2 0x24C0 PUSH1 0x60 DUP4 ADD DUP6 PUSH2 0x2475 JUMP JUMPDEST PUSH2 0x24CD PUSH1 0x80 DUP4 ADD DUP5 PUSH2 0x1D9F JUMP JUMPDEST SWAP7 SWAP6 POP POP POP POP POP POP JUMP JUMPDEST PUSH1 0x0 PUSH1 0x80 DUP3 ADD SWAP1 POP PUSH2 0x24EC PUSH1 0x0 DUP4 ADD DUP8 PUSH2 0x1D9F JUMP JUMPDEST PUSH2 0x24F9 PUSH1 0x20 DUP4 ADD DUP7 PUSH2 0x1996 JUMP JUMPDEST PUSH2 0x2506 PUSH1 0x40 DUP4 ADD DUP6 PUSH2 0x1D9F JUMP JUMPDEST PUSH2 0x2513 PUSH1 0x60 DUP4 ADD DUP5 PUSH2 0x2475 JUMP JUMPDEST SWAP6 SWAP5 POP POP POP POP POP JUMP JUMPDEST PUSH1 0x0 PUSH1 0x40 DUP3 ADD SWAP1 POP PUSH2 0x2531 PUSH1 0x0 DUP4 ADD DUP6 PUSH2 0x1996 JUMP JUMPDEST DUP2 DUP2 SUB PUSH1 0x20 DUP4 ADD MSTORE PUSH2 0x2543 DUP2 DUP5 PUSH2 0x227C JUMP JUMPDEST SWAP1 POP SWAP4 SWAP3 POP POP POP JUMP JUMPDEST PUSH1 0x0 DUP2 MLOAD SWAP1 POP SWAP2 SWAP1 POP JUMP JUMPDEST PUSH1 0x0 DUP3 DUP3 MSTORE PUSH1 0x20 DUP3 ADD SWAP1 POP SWAP3 SWAP2 POP POP JUMP JUMPDEST PUSH1 0x0 JUMPDEST DUP4 DUP2 LT ISZERO PUSH2 0x2586 JUMPI DUP1 DUP3 ADD MLOAD DUP2 DUP5 ADD MSTORE PUSH1 0x20 DUP2 ADD SWAP1 POP PUSH2 0x256B JUMP JUMPDEST DUP4 DUP2 GT ISZERO PUSH2 0x2595 JUMPI PUSH1 0x0 DUP5 DUP5 ADD MSTORE JUMPDEST POP POP POP POP JUMP JUMPDEST PUSH1 0x0 PUSH2 0x25A6 DUP3 PUSH2 0x254C JUMP JUMPDEST PUSH2 0x25B0 DUP2 DUP6 PUSH2 0x2557 JUMP JUMPDEST SWAP4 POP PUSH2 0x25C0 DUP2 DUP6 PUSH1 0x20 DUP7 ADD PUSH2 0x2568 JUMP JUMPDEST PUSH2 0x25C9 DUP2 PUSH2 0x1BF4 JUMP JUMPDEST DUP5 ADD SWAP2 POP POP SWAP3 SWAP2 POP POP JUMP JUMPDEST PUSH1 0x0 PUSH1 0x80 DUP3 ADD SWAP1 POP DUP2 DUP2 SUB PUSH1 0x0 DUP4 ADD MSTORE PUSH2 0x25EE DUP2 DUP8 PUSH2 0x259B JUMP JUMPDEST SWAP1 POP PUSH2 0x25FD PUSH1 0x20 DUP4 ADD DUP7 PUSH2 0x1996 JUMP JUMPDEST PUSH2 0x260A PUSH1 0x40 DUP4 ADD DUP6 PUSH2 0x1996 JUMP JUMPDEST PUSH2 0x2617 PUSH1 0x60 DUP4 ADD DUP5 PUSH2 0x1996 JUMP JUMPDEST SWAP6 SWAP5 POP POP POP POP POP JUMP JUMPDEST PUSH1 0x0 PUSH1 0x40 DUP3 ADD SWAP1 POP DUP2 DUP2 SUB PUSH1 0x0 DUP4 ADD MSTORE PUSH2 0x263A DUP2 DUP6 PUSH2 0x259B JUMP JUMPDEST SWAP1 POP PUSH2 0x2649 PUSH1 0x20 DUP4 ADD DUP5 PUSH2 0x1996 JUMP JUMPDEST SWAP4 SWAP3 POP POP POP JUMP JUMPDEST PUSH1 0x0 PUSH1 0x60 DUP3 ADD SWAP1 POP DUP2 DUP2 SUB PUSH1 0x0 DUP4 ADD MSTORE PUSH2 0x266A DUP2 DUP7 PUSH2 0x259B JUMP JUMPDEST SWAP1 POP PUSH2 0x2679 PUSH1 0x20 DUP4 ADD DUP6 PUSH2 0x1996 JUMP JUMPDEST DUP2 DUP2 SUB PUSH1 0x40 DUP4 ADD MSTORE PUSH2 0x268B DUP2 DUP5 PUSH2 0x259B JUMP JUMPDEST SWAP1 POP SWAP5 SWAP4 POP POP POP POP JUMP JUMPDEST PUSH1 0x0 PUSH1 0x60 DUP3 ADD SWAP1 POP DUP2 DUP2 SUB PUSH1 0x0 DUP4 ADD MSTORE PUSH2 0x26AF DUP2 DUP7 PUSH2 0x259B JUMP JUMPDEST SWAP1 POP PUSH2 0x26BE PUSH1 0x20 DUP4 ADD DUP6 PUSH2 0x1996 JUMP JUMPDEST PUSH2 0x26CB PUSH1 0x40 DUP4 ADD DUP5 PUSH2 0x1D9F JUMP JUMPDEST SWAP5 SWAP4 POP POP POP POP JUMP JUMPDEST PUSH1 0x0 PUSH1 0x60 DUP3 ADD SWAP1 POP DUP2 DUP2 SUB PUSH1 0x0 DUP4 ADD MSTORE PUSH2 0x26ED DUP2 DUP7 PUSH2 0x259B JUMP JUMPDEST SWAP1 POP PUSH2 0x26FC PUSH1 0x20 DUP4 ADD DUP6 PUSH2 0x1D9F JUMP JUMPDEST PUSH2 0x2709 PUSH1 0x40 DUP4 ADD DUP5 PUSH2 0x1996 JUMP JUMPDEST SWAP5 SWAP4 POP POP POP POP JUMP JUMPDEST PUSH1 0x0 PUSH1 0x40 DUP3 ADD SWAP1 POP DUP2 DUP2 SUB PUSH1 0x0 DUP4 ADD MSTORE PUSH2 0x272B DUP2 DUP6 PUSH2 0x259B JUMP JUMPDEST SWAP1 POP PUSH2 0x273A PUSH1 0x20 DUP4 ADD DUP5 PUSH2 0x1D9F JUMP JUMPDEST SWAP4 SWAP3 POP POP POP JUMP INVALID PUSH3 0x6F7272 PUSH16 0x7753756D2025732C206D696E53656C6C MSTORE8 PUSH22 0x6D2025732C2073756D546F436C6F7365464C202573A2 PUSH5 0x6970667358 0x22 SLT KECCAK256 0xE0 CALLDATACOPY TIMESTAMP 0xDC 0x2F PUSH25 0x9F41EB6CF518EABA1B87ABC31D4A131C2EB0578438E68C7C2D 0x2E PUSH5 0x736F6C6343 STOP ADDMOD EXP STOP CALLER "},"methodIdentifiers":{"balance(address,address)":"b203bb99","balance_text(address,address,string)":"42ff3ad8","borrow(address,address,uint256)":"5224372c","closeSum(address,address,address,address)":"03cfe7dc","getAmountsOut(uint256,address,address,address)":"f0aa8583","getUserAccountData(address,address)":"f5447649","maxBorrowSum(address,address,address,address)":"80135ba8","msg1()":"f3571f29","repay(address,address,uint256)":"1da649cf","repayFull(address,address)":"d1adc125","supply(address,address,uint256,address)":"8faf5531","swapExactTokenForTokens(uint256,address,address,address)":"36c18e19","transfer(address,address,uint256)":"beabacc8","transferFrom(address,address,address,uint256)":"15dacbea","withdraw(address,address,uint256,address)":"0e917f76","withdrawFull(address,address)":"38ad12e8"}}}}}