{
  "_format": "hh-sol-artifact-1",
  "contractName": "FlashLoan",
  "sourceName": "contracts/FL.sol",
  "abi": [
    {
      "inputs": [
        {
          "internalType": "address",
          "name": "_PoolAddressesProvider",
          "type": "address"
        }
      ],
      "stateMutability": "nonpayable",
      "type": "constructor"
    },
    {
      "inputs": [],
      "name": "ADDRESSES_PROVIDER",
      "outputs": [
        {
          "internalType": "contract IPoolAddressesProvider",
          "name": "",
          "type": "address"
        }
      ],
      "stateMutability": "view",
      "type": "function"
    },
    {
      "inputs": [],
      "name": "POOL",
      "outputs": [
        {
          "internalType": "contract IPool",
          "name": "",
          "type": "address"
        }
      ],
      "stateMutability": "view",
      "type": "function"
    },
    {
      "inputs": [
        {
          "internalType": "address",
          "name": "_token",
          "type": "address"
        },
        {
          "internalType": "address",
          "name": "acc",
          "type": "address"
        }
      ],
      "name": "balance",
      "outputs": [
        {
          "internalType": "uint256",
          "name": "",
          "type": "uint256"
        }
      ],
      "stateMutability": "view",
      "type": "function"
    },
    {
      "inputs": [
        {
          "internalType": "address",
          "name": "_token",
          "type": "address"
        },
        {
          "internalType": "address",
          "name": "acc",
          "type": "address"
        },
        {
          "internalType": "string",
          "name": "text",
          "type": "string"
        }
      ],
      "name": "balance_text",
      "outputs": [
        {
          "internalType": "uint256",
          "name": "",
          "type": "uint256"
        }
      ],
      "stateMutability": "view",
      "type": "function"
    },
    {
      "inputs": [
        {
          "internalType": "address",
          "name": "Pool",
          "type": "address"
        },
        {
          "internalType": "address",
          "name": "asset",
          "type": "address"
        },
        {
          "internalType": "uint256",
          "name": "amount",
          "type": "uint256"
        }
      ],
      "name": "borrow",
      "outputs": [],
      "stateMutability": "nonpayable",
      "type": "function"
    },
    {
      "inputs": [
        {
          "internalType": "address",
          "name": "Pool",
          "type": "address"
        },
        {
          "internalType": "address",
          "name": "openAsset",
          "type": "address"
        },
        {
          "internalType": "address",
          "name": "supplyAsset",
          "type": "address"
        },
        {
          "internalType": "address",
          "name": "Router",
          "type": "address"
        }
      ],
      "name": "closeSum",
      "outputs": [
        {
          "internalType": "uint256",
          "name": "",
          "type": "uint256"
        }
      ],
      "stateMutability": "view",
      "type": "function"
    },
    {
      "inputs": [
        {
          "internalType": "address",
          "name": "asset",
          "type": "address"
        },
        {
          "internalType": "uint256",
          "name": "amount",
          "type": "uint256"
        },
        {
          "internalType": "uint256",
          "name": "premium",
          "type": "uint256"
        },
        {
          "internalType": "address",
          "name": "initiator",
          "type": "address"
        },
        {
          "internalType": "bytes",
          "name": "params",
          "type": "bytes"
        }
      ],
      "name": "executeOperation",
      "outputs": [
        {
          "internalType": "bool",
          "name": "",
          "type": "bool"
        }
      ],
      "stateMutability": "nonpayable",
      "type": "function"
    },
    {
      "inputs": [
        {
          "internalType": "uint256",
          "name": "amountIn",
          "type": "uint256"
        },
        {
          "internalType": "address",
          "name": "token0",
          "type": "address"
        },
        {
          "internalType": "address",
          "name": "token1",
          "type": "address"
        },
        {
          "internalType": "address",
          "name": "Router",
          "type": "address"
        }
      ],
      "name": "getAmountsOut",
      "outputs": [
        {
          "internalType": "uint256",
          "name": "",
          "type": "uint256"
        }
      ],
      "stateMutability": "view",
      "type": "function"
    },
    {
      "inputs": [
        {
          "internalType": "address",
          "name": "Pool",
          "type": "address"
        },
        {
          "internalType": "address",
          "name": "user",
          "type": "address"
        }
      ],
      "name": "getUserAccountData",
      "outputs": [
        {
          "internalType": "uint256",
          "name": "",
          "type": "uint256"
        },
        {
          "internalType": "uint256",
          "name": "",
          "type": "uint256"
        },
        {
          "internalType": "uint256",
          "name": "",
          "type": "uint256"
        },
        {
          "internalType": "uint256",
          "name": "",
          "type": "uint256"
        },
        {
          "internalType": "uint256",
          "name": "",
          "type": "uint256"
        },
        {
          "internalType": "uint256",
          "name": "",
          "type": "uint256"
        }
      ],
      "stateMutability": "view",
      "type": "function"
    },
    {
      "inputs": [
        {
          "internalType": "address",
          "name": "Pool",
          "type": "address"
        },
        {
          "internalType": "address",
          "name": "supplyAsset",
          "type": "address"
        },
        {
          "internalType": "address",
          "name": "borrowAsset",
          "type": "address"
        },
        {
          "internalType": "address",
          "name": "Router",
          "type": "address"
        }
      ],
      "name": "maxBorrowSum",
      "outputs": [
        {
          "internalType": "uint256",
          "name": "",
          "type": "uint256"
        }
      ],
      "stateMutability": "view",
      "type": "function"
    },
    {
      "inputs": [],
      "name": "msg1",
      "outputs": [
        {
          "internalType": "address",
          "name": "",
          "type": "address"
        }
      ],
      "stateMutability": "nonpayable",
      "type": "function"
    },
    {
      "inputs": [
        {
          "internalType": "address",
          "name": "Pool",
          "type": "address"
        },
        {
          "internalType": "address",
          "name": "asset",
          "type": "address"
        },
        {
          "internalType": "uint256",
          "name": "amount",
          "type": "uint256"
        }
      ],
      "name": "repay",
      "outputs": [],
      "stateMutability": "nonpayable",
      "type": "function"
    },
    {
      "inputs": [
        {
          "internalType": "address",
          "name": "Pool",
          "type": "address"
        },
        {
          "internalType": "address",
          "name": "asset",
          "type": "address"
        }
      ],
      "name": "repayFull",
      "outputs": [],
      "stateMutability": "nonpayable",
      "type": "function"
    },
    {
      "inputs": [
        {
          "internalType": "address",
          "name": "_token1",
          "type": "address"
        },
        {
          "internalType": "address",
          "name": "_token2",
          "type": "address"
        },
        {
          "internalType": "uint256",
          "name": "_amount",
          "type": "uint256"
        },
        {
          "internalType": "enum FlashLoan.Direction",
          "name": "direction",
          "type": "uint8"
        }
      ],
      "name": "requestFlashLoan",
      "outputs": [],
      "stateMutability": "nonpayable",
      "type": "function"
    },
    {
      "inputs": [
        {
          "internalType": "address",
          "name": "Pool",
          "type": "address"
        },
        {
          "internalType": "address",
          "name": "asset",
          "type": "address"
        },
        {
          "internalType": "uint256",
          "name": "amount",
          "type": "uint256"
        },
        {
          "internalType": "address",
          "name": "onBehalfOf",
          "type": "address"
        }
      ],
      "name": "supply",
      "outputs": [],
      "stateMutability": "nonpayable",
      "type": "function"
    },
    {
      "inputs": [
        {
          "internalType": "uint256",
          "name": "amountIn",
          "type": "uint256"
        },
        {
          "internalType": "address",
          "name": "token0",
          "type": "address"
        },
        {
          "internalType": "address",
          "name": "token1",
          "type": "address"
        },
        {
          "internalType": "address",
          "name": "Router",
          "type": "address"
        }
      ],
      "name": "swapExactTokenForTokens",
      "outputs": [
        {
          "internalType": "uint256",
          "name": "",
          "type": "uint256"
        }
      ],
      "stateMutability": "nonpayable",
      "type": "function"
    },
    {
      "inputs": [
        {
          "internalType": "address",
          "name": "_token",
          "type": "address"
        },
        {
          "internalType": "address",
          "name": "receiver",
          "type": "address"
        },
        {
          "internalType": "uint256",
          "name": "amount",
          "type": "uint256"
        }
      ],
      "name": "transfer",
      "outputs": [
        {
          "internalType": "bool",
          "name": "",
          "type": "bool"
        }
      ],
      "stateMutability": "nonpayable",
      "type": "function"
    },
    {
      "inputs": [
        {
          "internalType": "address",
          "name": "_token",
          "type": "address"
        },
        {
          "internalType": "address",
          "name": "sender",
          "type": "address"
        },
        {
          "internalType": "address",
          "name": "dst",
          "type": "address"
        },
        {
          "internalType": "uint256",
          "name": "wad",
          "type": "uint256"
        }
      ],
      "name": "transferFrom",
      "outputs": [
        {
          "internalType": "bool",
          "name": "",
          "type": "bool"
        }
      ],
      "stateMutability": "nonpayable",
      "type": "function"
    },
    {
      "inputs": [
        {
          "internalType": "address",
          "name": "Pool",
          "type": "address"
        },
        {
          "internalType": "address",
          "name": "asset",
          "type": "address"
        },
        {
          "internalType": "uint256",
          "name": "amount",
          "type": "uint256"
        },
        {
          "internalType": "address",
          "name": "to",
          "type": "address"
        }
      ],
      "name": "withdraw",
      "outputs": [
        {
          "internalType": "uint256",
          "name": "",
          "type": "uint256"
        }
      ],
      "stateMutability": "nonpayable",
      "type": "function"
    },
    {
      "inputs": [
        {
          "internalType": "address",
          "name": "Pool",
          "type": "address"
        },
        {
          "internalType": "address",
          "name": "asset",
          "type": "address"
        }
      ],
      "name": "withdrawFull",
      "outputs": [
        {
          "internalType": "uint256",
          "name": "",
          "type": "uint256"
        }
      ],
      "stateMutability": "nonpayable",
      "type": "function"
    },
    {
      "stateMutability": "payable",
      "type": "receive"
    }
  ],
  "bytecode": "0x60c06040523480156200001157600080fd5b5060405162003530380380620035308339818101604052810190620000379190620001c3565b808073ffffffffffffffffffffffffffffffffffffffff1660808173ffffffffffffffffffffffffffffffffffffffff16815250508073ffffffffffffffffffffffffffffffffffffffff1663026b1d5f6040518163ffffffff1660e01b8152600401602060405180830381865afa158015620000b8573d6000803e3d6000fd5b505050506040513d601f19601f82011682018060405250810190620000de9190620001c3565b73ffffffffffffffffffffffffffffffffffffffff1660a08173ffffffffffffffffffffffffffffffffffffffff168152505050336000806101000a81548173ffffffffffffffffffffffffffffffffffffffff021916908373ffffffffffffffffffffffffffffffffffffffff16021790555050620001f5565b600080fd5b600073ffffffffffffffffffffffffffffffffffffffff82169050919050565b60006200018b826200015e565b9050919050565b6200019d816200017e565b8114620001a957600080fd5b50565b600081519050620001bd8162000192565b92915050565b600060208284031215620001dc57620001db62000159565b5b6000620001ec84828501620001ac565b91505092915050565b60805160a0516132e46200024c6000396000818161072501528181610b0e01528181610b3c01528181610b7e01528181610c1501528181610c3f01528181610cd601526113980152600061067201526132e46000f3fe6080604052600436106101235760003560e01c80635224372c116100a0578063beabacc811610064578063beabacc81461044e578063d1adc1251461048b578063f0aa8583146104b4578063f3571f29146104f1578063f54476491461051c5761012a565b80635224372c146103575780637535d2461461038057806380135ba8146103ab5780638faf5531146103e8578063b203bb99146104115761012a565b80631b11d0ff116100e75780631b11d0ff1461023a5780631da649cf1461027757806336c18e19146102a057806338ad12e8146102dd57806342ff3ad81461031a5761012a565b806303cfe7dc1461012f5780630542975c1461016c578063067a71a9146101975780630e917f76146101c057806315dacbea146101fd5761012a565b3661012a57005b600080fd5b34801561013b57600080fd5b506101566004803603810190610151919061205d565b61055e565b60405161016391906120dd565b60405180910390f35b34801561017857600080fd5b50610181610670565b60405161018e9190612157565b60405180910390f35b3480156101a357600080fd5b506101be60048036038101906101b991906121c3565b610694565b005b3480156101cc57600080fd5b506101e760048036038101906101e2919061222a565b610843565b6040516101f491906120dd565b60405180910390f35b34801561020957600080fd5b50610224600480360381019061021f9190612291565b610912565b6040516102319190612313565b60405180910390f35b34801561024657600080fd5b50610261600480360381019061025c9190612393565b6109dd565b60405161026e9190612313565b60405180910390f35b34801561028357600080fd5b5061029e6004803603810190610299919061242d565b610d68565b005b3480156102ac57600080fd5b506102c760048036038101906102c29190612480565b610e76565b6040516102d491906120dd565b60405180910390f35b3480156102e957600080fd5b5061030460048036038101906102ff91906124e7565b6110ff565b60405161031191906120dd565b60405180910390f35b34801561032657600080fd5b50610341600480360381019061033c9190612668565b61120c565b60405161034e91906120dd565b60405180910390f35b34801561036357600080fd5b5061037e6004803603810190610379919061242d565b6112d6565b005b34801561038c57600080fd5b50610395611396565b6040516103a291906126f8565b60405180910390f35b3480156103b757600080fd5b506103d260048036038101906103cd919061205d565b6113ba565b6040516103df91906120dd565b60405180910390f35b3480156103f457600080fd5b5061040f600480360381019061040a919061222a565b6114bd565b005b34801561041d57600080fd5b50610438600480360381019061043391906124e7565b6115f9565b60405161044591906120dd565b60405180910390f35b34801561045a57600080fd5b506104756004803603810190610470919061242d565b6116c2565b6040516104829190612313565b60405180910390f35b34801561049757600080fd5b506104b260048036038101906104ad91906124e7565b61178a565b005b3480156104c057600080fd5b506104db60048036038101906104d69190612480565b6118d7565b6040516104e891906120dd565b60405180910390f35b3480156104fd57600080fd5b50610506611b25565b6040516105139190612722565b60405180910390f35b34801561052857600080fd5b50610543600480360381019061053e91906124e7565b611b6c565b6040516105559695949392919061273d565b60405180910390f35b6000808590506000806000806000808673ffffffffffffffffffffffffffffffffffffffff1663bf92857c306040518263ffffffff1660e01b81526004016105a69190612722565b60c060405180830381865afa1580156105c3573d6000803e3d6000fd5b505050506040513d601f19601f820116820180604052508101906105e791906127b3565b955095509550955095509550600061060d606487610605919061289e565b8d8d8d6118d7565b90506000606460698361062091906128cf565b61062a919061289e565b905061065c6040518060600160405280602c8152602001613283602c9139606489610655919061289e565b8484611c0b565b809950505050505050505050949350505050565b7f000000000000000000000000000000000000000000000000000000000000000081565b60008054906101000a900473ffffffffffffffffffffffffffffffffffffffff1673ffffffffffffffffffffffffffffffffffffffff163373ffffffffffffffffffffffffffffffffffffffff16146106ec57600080fd5b600030905060008590506000849050600086856040516020016107109291906129a0565b604051602081830303815290604052905060007f000000000000000000000000000000000000000000000000000000000000000073ffffffffffffffffffffffffffffffffffffffff166342b0b77c86868686866040518663ffffffff1660e01b8152600401610784959493929190612a6e565b600060405180830381600087803b15801561079e57600080fd5b505af11580156107b2573d6000803e3d6000fd5b505050506107f689306040518060400160405280601381526020017f5553444320616674657220666c2072657061790000000000000000000000000081525061120c565b5061083788306040518060400160405280601381526020017f5553445420616674657220666c2072657061790000000000000000000000000081525061120c565b50505050505050505050565b6000808590506108886040518060400160405280600d81526020017f776974686472617765642025730000000000000000000000000000000000000081525085611cad565b8073ffffffffffffffffffffffffffffffffffffffff166369328dec8686866040518463ffffffff1660e01b81526004016108c593929190612ac8565b6020604051808303816000875af11580156108e4573d6000803e3d6000fd5b505050506040513d601f19601f820116820180604052508101906109089190612aff565b5050949350505050565b60006109536040518060400160405280600b81526020017f7472616e7366657220257300000000000000000000000000000000000000000081525083611cad565b8473ffffffffffffffffffffffffffffffffffffffff166323b872dd8585856040518463ffffffff1660e01b815260040161099093929190612b2c565b6020604051808303816000875af11580156109af573d6000803e3d6000fd5b505050506040513d601f19601f820116820180604052508101906109d39190612b8f565b9050949350505050565b600080600084848101906109f19190612bfa565b91509150610a3589306040518060400160405280601181526020017f6173736574206265666f72652073656c6c00000000000000000000000000000081525061120c565b5060006001811115610a4a57610a49612929565b5b816001811115610a5d57610a5c612929565b5b1415610bc357610a83888a8473a5e0829caced8ffdd4de3c43696c57f7d7a678ff610e76565b50610ac489306040518060400160405280601081526020017f61737365742061667465722073656c6c0000000000000000000000000000000081525061120c565b506000610b0783306040518060400160405280601181526020017f6173736574322061667465722073656c6c00000000000000000000000000000081525061120c565b9050610b357f00000000000000000000000000000000000000000000000000000000000000008483306114bd565b6000610b777f0000000000000000000000000000000000000000000000000000000000000000858d73a5e0829caced8ffdd4de3c43696c57f7d7a678ff6113ba565b9050610bbc7f00000000000000000000000000000000000000000000000000000000000000008c600a600985610bad91906128cf565b610bb7919061289e565b6112d6565b5050610c67565b600180811115610bd657610bd5612929565b5b816001811115610be957610be8612929565b5b1415610c6657610c0f888a8473a5e0829caced8ffdd4de3c43696c57f7d7a678ff610e76565b50610c3a7f00000000000000000000000000000000000000000000000000000000000000008361178a565b610c647f00000000000000000000000000000000000000000000000000000000000000008a6110ff565b505b5b610ca789306040518060400160405280601581526020017f6173736574206265666f726520666c207265706179000000000000000000000081525061120c565b5060008789610cb69190612c3a565b90508973ffffffffffffffffffffffffffffffffffffffff1663095ea7b37f0000000000000000000000000000000000000000000000000000000000000000836040518363ffffffff1660e01b8152600401610d13929190612c90565b6020604051808303816000875af1158015610d32573d6000803e3d6000fd5b505050506040513d601f19601f82011682018060405250810190610d569190612b8f565b50600193505050509695505050505050565b8173ffffffffffffffffffffffffffffffffffffffff1663095ea7b384836040518363ffffffff1660e01b8152600401610da3929190612c90565b6020604051808303816000875af1158015610dc2573d6000803e3d6000fd5b505050506040513d601f19601f82011682018060405250810190610de69190612b8f565b5060008390508073ffffffffffffffffffffffffffffffffffffffff1663573ade8184846001306040518563ffffffff1660e01b8152600401610e2c9493929190612cf4565b6020604051808303816000875af1158015610e4b573d6000803e3d6000fd5b505050506040513d601f19601f82011682018060405250810190610e6f9190612aff565b5050505050565b600080600267ffffffffffffffff811115610e9457610e9361253d565b5b604051908082528060200260200182016040528015610ec25781602001602082028036833780820191505090505b5090508481600081518110610eda57610ed9612d39565b5b602002602001019073ffffffffffffffffffffffffffffffffffffffff16908173ffffffffffffffffffffffffffffffffffffffff16815250508381600181518110610f2957610f28612d39565b5b602002602001019073ffffffffffffffffffffffffffffffffffffffff16908173ffffffffffffffffffffffffffffffffffffffff16815250508473ffffffffffffffffffffffffffffffffffffffff1663095ea7b384886040518363ffffffff1660e01b8152600401610f9e929190612c90565b6020604051808303816000875af1158015610fbd573d6000803e3d6000fd5b505050506040513d601f19601f82011682018060405250810190610fe19190612b8f565b5060008373ffffffffffffffffffffffffffffffffffffffff166338ed173988600085306103e8426110139190612c3a565b6040518663ffffffff1660e01b8152600401611033959493929190612e61565b6000604051808303816000875af1158015611052573d6000803e3d6000fd5b505050506040513d6000823e3d601f19601f8201168201806040525081019061107b9190612f7e565b90506110d76040518060400160405280600c81526020017f616d6f756e746f75742025730000000000000000000000000000000000000000815250826001815181106110ca576110c9612d39565b5b6020026020010151611cad565b806001815181106110eb576110ea612d39565b5b602002602001015192505050949350505050565b6000808390506111646040518060400160405280600d81526020017f77697468647261776564202573000000000000000000000000000000000000008152507fffffffffffffffffffffffffffffffffffffffffffffffffffffffffffffffff611cad565b8073ffffffffffffffffffffffffffffffffffffffff166369328dec847fffffffffffffffffffffffffffffffffffffffffffffffffffffffffffffffff306040518463ffffffff1660e01b81526004016111c193929190612ac8565b6020604051808303816000875af11580156111e0573d6000803e3d6000fd5b505050506040513d601f19601f820116820180604052508101906112049190612aff565b505092915050565b6000808473ffffffffffffffffffffffffffffffffffffffff166370a08231856040518263ffffffff1660e01b81526004016112489190612722565b602060405180830381865afa158015611265573d6000803e3d6000fd5b505050506040513d601f19601f820116820180604052508101906112899190612aff565b90506112cb6040518060400160405280600d81526020017f62616c616e6365202573202573000000000000000000000000000000000000008152508285611d49565b809150509392505050565b600083905061131b6040518060400160405280601681526020017f626f72726f776564202573202073656e646572202573000000000000000000008152508330611de8565b8073ffffffffffffffffffffffffffffffffffffffff1663a415bcad848460016000306040518663ffffffff1660e01b815260040161135e959493929190612ff8565b600060405180830381600087803b15801561137857600080fd5b505af115801561138c573d6000803e3d6000fd5b5050505050505050565b7f000000000000000000000000000000000000000000000000000000000000000081565b6000808590506000806000806000808673ffffffffffffffffffffffffffffffffffffffff1663bf92857c306040518263ffffffff1660e01b81526004016114029190612722565b60c060405180830381865afa15801561141f573d6000803e3d6000fd5b505050506040513d601f19601f8201168201806040525081019061144391906127b3565b9550955095509550955095506000611469606486611461919061289e565b8d8d8d6118d7565b90506114aa6040518060400160405280600f81526020017f6d6178426f72726f7753756d202573000000000000000000000000000000000081525082611cad565b8098505050505050505050949350505050565b8273ffffffffffffffffffffffffffffffffffffffff1663095ea7b385846040518363ffffffff1660e01b81526004016114f8929190612c90565b6020604051808303816000875af1158015611517573d6000803e3d6000fd5b505050506040513d601f19601f8201168201806040525081019061153b9190612b8f565b5060008490506115806040518060400160405280600b81526020017f737570706c79656420257300000000000000000000000000000000000000000081525084611cad565b8073ffffffffffffffffffffffffffffffffffffffff1663617ba03785858560006040518563ffffffff1660e01b81526004016115c0949392919061304b565b600060405180830381600087803b1580156115da57600080fd5b505af11580156115ee573d6000803e3d6000fd5b505050505050505050565b6000808373ffffffffffffffffffffffffffffffffffffffff166370a08231846040518263ffffffff1660e01b81526004016116359190612722565b602060405180830381865afa158015611652573d6000803e3d6000fd5b505050506040513d601f19601f820116820180604052508101906116769190612aff565b90506116b86040518060400160405280600d81526020017f62616c616e6365202573202573000000000000000000000000000000000000008152508583611e87565b8091505092915050565b60006117036040518060400160405280600b81526020017f7472616e7366657220257300000000000000000000000000000000000000000081525083611cad565b8373ffffffffffffffffffffffffffffffffffffffff1663a9059cbb84846040518363ffffffff1660e01b815260040161173e929190612c90565b6020604051808303816000875af115801561175d573d6000803e3d6000fd5b505050506040513d601f19601f820116820180604052508101906117819190612b8f565b90509392505050565b8073ffffffffffffffffffffffffffffffffffffffff1663095ea7b3837fffffffffffffffffffffffffffffffffffffffffffffffffffffffffffffffff6040518363ffffffff1660e01b81526004016117e5929190612c90565b6020604051808303816000875af1158015611804573d6000803e3d6000fd5b505050506040513d601f19601f820116820180604052508101906118289190612b8f565b5060008290508073ffffffffffffffffffffffffffffffffffffffff1663573ade81837fffffffffffffffffffffffffffffffffffffffffffffffffffffffffffffffff6001306040518563ffffffff1660e01b815260040161188e9493929190612cf4565b6020604051808303816000875af11580156118ad573d6000803e3d6000fd5b505050506040513d601f19601f820116820180604052508101906118d19190612aff565b50505050565b600080600267ffffffffffffffff8111156118f5576118f461253d565b5b6040519080825280602002602001820160405280156119235781602001602082028036833780820191505090505b509050848160008151811061193b5761193a612d39565b5b602002602001019073ffffffffffffffffffffffffffffffffffffffff16908173ffffffffffffffffffffffffffffffffffffffff1681525050838160018151811061198a57611989612d39565b5b602002602001019073ffffffffffffffffffffffffffffffffffffffff16908173ffffffffffffffffffffffffffffffffffffffff168152505060008373ffffffffffffffffffffffffffffffffffffffff1663d06ca61f88846040518363ffffffff1660e01b8152600401611a01929190613090565b600060405180830381865afa158015611a1e573d6000803e3d6000fd5b505050506040513d6000823e3d601f19601f82011682018060405250810190611a479190612f7e565b9050611aa36040518060400160405280600a81526020017f616d6f756e74302025730000000000000000000000000000000000000000000081525082600081518110611a9657611a95612d39565b5b6020026020010151611cad565b611afd6040518060400160405280600a81526020017f616d6f756e74312025730000000000000000000000000000000000000000000081525082600181518110611af057611aef612d39565b5b6020026020010151611cad565b80600181518110611b1157611b10612d39565b5b602002602001015192505050949350505050565b6000611b666040518060400160405280600e81526020017f6d73672e73656e6465722025732000000000000000000000000000000000000081525033611f26565b33905090565b60008060008060008060008890508073ffffffffffffffffffffffffffffffffffffffff1663bf92857c896040518263ffffffff1660e01b8152600401611bb39190612722565b60c060405180830381865afa158015611bd0573d6000803e3d6000fd5b505050506040513d601f19601f82011682018060405250810190611bf491906127b3565b965096509650965096509650509295509295509295565b611ca784848484604051602401611c259493929190613115565b6040516020818303038152906040527fa7a87853000000000000000000000000000000000000000000000000000000007bffffffffffffffffffffffffffffffffffffffffffffffffffffffff19166020820180517bffffffffffffffffffffffffffffffffffffffffffffffffffffffff8381831617835250505050611fc2565b50505050565b611d458282604051602401611cc3929190613161565b6040516020818303038152906040527fb60e72cc000000000000000000000000000000000000000000000000000000007bffffffffffffffffffffffffffffffffffffffffffffffffffffffff19166020820180517bffffffffffffffffffffffffffffffffffffffffffffffffffffffff8381831617835250505050611fc2565b5050565b611de3838383604051602401611d6193929190613191565b6040516020818303038152906040527f5970e089000000000000000000000000000000000000000000000000000000007bffffffffffffffffffffffffffffffffffffffffffffffffffffffff19166020820180517bffffffffffffffffffffffffffffffffffffffffffffffffffffffff8381831617835250505050611fc2565b505050565b611e82838383604051602401611e00939291906131d6565b6040516020818303038152906040527f1c7ec448000000000000000000000000000000000000000000000000000000007bffffffffffffffffffffffffffffffffffffffffffffffffffffffff19166020820180517bffffffffffffffffffffffffffffffffffffffffffffffffffffffff8381831617835250505050611fc2565b505050565b611f21838383604051602401611e9f93929190613214565b6040516020818303038152906040527f0d26b925000000000000000000000000000000000000000000000000000000007bffffffffffffffffffffffffffffffffffffffffffffffffffffffff19166020820180517bffffffffffffffffffffffffffffffffffffffffffffffffffffffff8381831617835250505050611fc2565b505050565b611fbe8282604051602401611f3c929190613252565b6040516020818303038152906040527f319af333000000000000000000000000000000000000000000000000000000007bffffffffffffffffffffffffffffffffffffffffffffffffffffffff19166020820180517bffffffffffffffffffffffffffffffffffffffffffffffffffffffff8381831617835250505050611fc2565b5050565b60008151905060006a636f6e736f6c652e6c6f679050602083016000808483855afa5050505050565b6000604051905090565b600080fd5b600080fd5b600073ffffffffffffffffffffffffffffffffffffffff82169050919050565b600061202a82611fff565b9050919050565b61203a8161201f565b811461204557600080fd5b50565b60008135905061205781612031565b92915050565b6000806000806080858703121561207757612076611ff5565b5b600061208587828801612048565b945050602061209687828801612048565b93505060406120a787828801612048565b92505060606120b887828801612048565b91505092959194509250565b6000819050919050565b6120d7816120c4565b82525050565b60006020820190506120f260008301846120ce565b92915050565b6000819050919050565b600061211d61211861211384611fff565b6120f8565b611fff565b9050919050565b600061212f82612102565b9050919050565b600061214182612124565b9050919050565b61215181612136565b82525050565b600060208201905061216c6000830184612148565b92915050565b61217b816120c4565b811461218657600080fd5b50565b60008135905061219881612172565b92915050565b600281106121ab57600080fd5b50565b6000813590506121bd8161219e565b92915050565b600080600080608085870312156121dd576121dc611ff5565b5b60006121eb87828801612048565b94505060206121fc87828801612048565b935050604061220d87828801612189565b925050606061221e878288016121ae565b91505092959194509250565b6000806000806080858703121561224457612243611ff5565b5b600061225287828801612048565b945050602061226387828801612048565b935050604061227487828801612189565b925050606061228587828801612048565b91505092959194509250565b600080600080608085870312156122ab576122aa611ff5565b5b60006122b987828801612048565b94505060206122ca87828801612048565b93505060406122db87828801612048565b92505060606122ec87828801612189565b91505092959194509250565b60008115159050919050565b61230d816122f8565b82525050565b60006020820190506123286000830184612304565b92915050565b600080fd5b600080fd5b600080fd5b60008083601f8401126123535761235261232e565b5b8235905067ffffffffffffffff8111156123705761236f612333565b5b60208301915083600182028301111561238c5761238b612338565b5b9250929050565b60008060008060008060a087890312156123b0576123af611ff5565b5b60006123be89828a01612048565b96505060206123cf89828a01612189565b95505060406123e089828a01612189565b94505060606123f189828a01612048565b935050608087013567ffffffffffffffff81111561241257612411611ffa565b5b61241e89828a0161233d565b92509250509295509295509295565b60008060006060848603121561244657612445611ff5565b5b600061245486828701612048565b935050602061246586828701612048565b925050604061247686828701612189565b9150509250925092565b6000806000806080858703121561249a57612499611ff5565b5b60006124a887828801612189565b94505060206124b987828801612048565b93505060406124ca87828801612048565b92505060606124db87828801612048565b91505092959194509250565b600080604083850312156124fe576124fd611ff5565b5b600061250c85828601612048565b925050602061251d85828601612048565b9150509250929050565b600080fd5b6000601f19601f8301169050919050565b7f4e487b7100000000000000000000000000000000000000000000000000000000600052604160045260246000fd5b6125758261252c565b810181811067ffffffffffffffff821117156125945761259361253d565b5b80604052505050565b60006125a7611feb565b90506125b3828261256c565b919050565b600067ffffffffffffffff8211156125d3576125d261253d565b5b6125dc8261252c565b9050602081019050919050565b82818337600083830152505050565b600061260b612606846125b8565b61259d565b90508281526020810184848401111561262757612626612527565b5b6126328482856125e9565b509392505050565b600082601f83011261264f5761264e61232e565b5b813561265f8482602086016125f8565b91505092915050565b60008060006060848603121561268157612680611ff5565b5b600061268f86828701612048565b93505060206126a086828701612048565b925050604084013567ffffffffffffffff8111156126c1576126c0611ffa565b5b6126cd8682870161263a565b9150509250925092565b60006126e282612124565b9050919050565b6126f2816126d7565b82525050565b600060208201905061270d60008301846126e9565b92915050565b61271c8161201f565b82525050565b60006020820190506127376000830184612713565b92915050565b600060c08201905061275260008301896120ce565b61275f60208301886120ce565b61276c60408301876120ce565b61277960608301866120ce565b61278660808301856120ce565b61279360a08301846120ce565b979650505050505050565b6000815190506127ad81612172565b92915050565b60008060008060008060c087890312156127d0576127cf611ff5565b5b60006127de89828a0161279e565b96505060206127ef89828a0161279e565b955050604061280089828a0161279e565b945050606061281189828a0161279e565b935050608061282289828a0161279e565b92505060a061283389828a0161279e565b9150509295509295509295565b7f4e487b7100000000000000000000000000000000000000000000000000000000600052601260045260246000fd5b7f4e487b7100000000000000000000000000000000000000000000000000000000600052601160045260246000fd5b60006128a9826120c4565b91506128b4836120c4565b9250826128c4576128c3612840565b5b828204905092915050565b60006128da826120c4565b91506128e5836120c4565b9250817fffffffffffffffffffffffffffffffffffffffffffffffffffffffffffffffff048311821515161561291e5761291d61286f565b5b828202905092915050565b7f4e487b7100000000000000000000000000000000000000000000000000000000600052602160045260246000fd5b6002811061296957612968612929565b5b50565b600081905061297a82612958565b919050565b600061298a8261296c565b9050919050565b61299a8161297f565b82525050565b60006040820190506129b56000830185612713565b6129c26020830184612991565b9392505050565b600081519050919050565b600082825260208201905092915050565b60005b83811015612a035780820151818401526020810190506129e8565b83811115612a12576000848401525b50505050565b6000612a23826129c9565b612a2d81856129d4565b9350612a3d8185602086016129e5565b612a468161252c565b840191505092915050565b600061ffff82169050919050565b612a6881612a51565b82525050565b600060a082019050612a836000830188612713565b612a906020830187612713565b612a9d60408301866120ce565b8181036060830152612aaf8185612a18565b9050612abe6080830184612a5f565b9695505050505050565b6000606082019050612add6000830186612713565b612aea60208301856120ce565b612af76040830184612713565b949350505050565b600060208284031215612b1557612b14611ff5565b5b6000612b238482850161279e565b91505092915050565b6000606082019050612b416000830186612713565b612b4e6020830185612713565b612b5b60408301846120ce565b949350505050565b612b6c816122f8565b8114612b7757600080fd5b50565b600081519050612b8981612b63565b92915050565b600060208284031215612ba557612ba4611ff5565b5b6000612bb384828501612b7a565b91505092915050565b6000612bc782611fff565b9050919050565b612bd781612bbc565b8114612be257600080fd5b50565b600081359050612bf481612bce565b92915050565b60008060408385031215612c1157612c10611ff5565b5b6000612c1f85828601612be5565b9250506020612c30858286016121ae565b9150509250929050565b6000612c45826120c4565b9150612c50836120c4565b9250827fffffffffffffffffffffffffffffffffffffffffffffffffffffffffffffffff03821115612c8557612c8461286f565b5b828201905092915050565b6000604082019050612ca56000830185612713565b612cb260208301846120ce565b9392505050565b6000819050919050565b6000612cde612cd9612cd484612cb9565b6120f8565b6120c4565b9050919050565b612cee81612cc3565b82525050565b6000608082019050612d096000830187612713565b612d1660208301866120ce565b612d236040830185612ce5565b612d306060830184612713565b95945050505050565b7f4e487b7100000000000000000000000000000000000000000000000000000000600052603260045260246000fd5b6000819050919050565b6000612d8d612d88612d8384612d68565b6120f8565b6120c4565b9050919050565b612d9d81612d72565b82525050565b600081519050919050565b600082825260208201905092915050565b6000819050602082019050919050565b612dd88161201f565b82525050565b6000612dea8383612dcf565b60208301905092915050565b6000602082019050919050565b6000612e0e82612da3565b612e188185612dae565b9350612e2383612dbf565b8060005b83811015612e54578151612e3b8882612dde565b9750612e4683612df6565b925050600181019050612e27565b5085935050505092915050565b600060a082019050612e7660008301886120ce565b612e836020830187612d94565b8181036040830152612e958186612e03565b9050612ea46060830185612713565b612eb160808301846120ce565b9695505050505050565b600067ffffffffffffffff821115612ed657612ed561253d565b5b602082029050602081019050919050565b6000612efa612ef584612ebb565b61259d565b90508083825260208201905060208402830185811115612f1d57612f1c612338565b5b835b81811015612f465780612f32888261279e565b845260208401935050602081019050612f1f565b5050509392505050565b600082601f830112612f6557612f6461232e565b5b8151612f75848260208601612ee7565b91505092915050565b600060208284031215612f9457612f93611ff5565b5b600082015167ffffffffffffffff811115612fb257612fb1611ffa565b5b612fbe84828501612f50565b91505092915050565b6000612fe2612fdd612fd884612d68565b6120f8565b612a51565b9050919050565b612ff281612fc7565b82525050565b600060a08201905061300d6000830188612713565b61301a60208301876120ce565b6130276040830186612ce5565b6130346060830185612fe9565b6130416080830184612713565b9695505050505050565b60006080820190506130606000830187612713565b61306d60208301866120ce565b61307a6040830185612713565b6130876060830184612fe9565b95945050505050565b60006040820190506130a560008301856120ce565b81810360208301526130b78184612e03565b90509392505050565b600081519050919050565b600082825260208201905092915050565b60006130e7826130c0565b6130f181856130cb565b93506131018185602086016129e5565b61310a8161252c565b840191505092915050565b6000608082019050818103600083015261312f81876130dc565b905061313e60208301866120ce565b61314b60408301856120ce565b61315860608301846120ce565b95945050505050565b6000604082019050818103600083015261317b81856130dc565b905061318a60208301846120ce565b9392505050565b600060608201905081810360008301526131ab81866130dc565b90506131ba60208301856120ce565b81810360408301526131cc81846130dc565b9050949350505050565b600060608201905081810360008301526131f081866130dc565b90506131ff60208301856120ce565b61320c6040830184612713565b949350505050565b6000606082019050818103600083015261322e81866130dc565b905061323d6020830185612713565b61324a60408301846120ce565b949350505050565b6000604082019050818103600083015261326c81856130dc565b905061327b6020830184612713565b939250505056fe626f72726f7753756d2025732c206d696e53656c6c53756d2025732c2073756d546f436c6f7365464c202573a264697066735822122002f09d65169be9f84044dbf448083097d0c9c18a97a21bdc224326da09639a0b64736f6c634300080a0033",
  "linkReferences": {},
  "deployedLinkReferences": {}
}